:020000040800F2
:1000000038C500208DC70008F5990008F799000849
:100010000F9A0008139A0008179A000800000000C1
:100020000000000000000000000000001B9A000813
:100030001D9A00080000000083ED0008E7EF0008AB
:10004000A7C70008A7C70008A7C70008A7C70008D8
:10005000A7C70008A7C70008A7C70008A7C70008C8
:10006000A7C70008A7C70008A7C70008A7C70008B8
:10007000A7C70008A7C7000859400008CB430008DD
:10008000A7C70008EF3D0008A7C70008A7C70008DA
:100090001D0E0008A7C70008A7C70008A7C70008CB
:1000A000A7C70008A7C70008A7C70008A7C7000878
:1000B000A7C70008FF390008A7C70008A7C700089E
:1000C000A7C70008A7C70008A7C70008A7C7000858
:1000D000A7C70008F93B0008153E00087940000852
:1000E000A7C70008A7C70008A7C70008A7C7000838
:1000F000A7C70008A7C70008A7C700083946000817
:10010000A7C70008A7C70008A7C70008A7C7000817
:100110000B4300086F450008A7C70008A7C70008E1
:10012000A7C70008A7C70008A7C70008A7C70008F7
:10013000A7C70008A7C70008A7C70008A7C70008E7
:1001400065300008A7C70008A7C70008A7C70008B0
:10015000A7C70008A7C70008D33B0008A7C7000827
:10016000A7C70008A7C70008A7C70008A7C70008B7
:10017000A7C70008A7C70008A7C70008A7C70008A7
:10018000A7C70008A7C70008DFF80CD00FF098FB3E
:1001900000480047D10A000838C5002000BF00BF52
:1001A000FD484078B0B9FC488089401CFA498881F4
:1001B00008468089322808DD082009F04DFCF7A2A6
:1001C000F9A1FA480FF0A6FD08E04FF4C8700EF050
:1001D000E1FCE5E70120F049087000BF00BF00BF67
:1001E000ED48007801283ED1F1480068401CF049F4
:1001F0000860F04890ED020AE74880ED010A90EDB2
:10020000010AD0ED020A30EE600ADFEDEB0AB4EE2F
:10021000E00AF1EE10FA03DDC078401CDE49C87038
:10022000DD4890ED010A80ED020AC8200EF0B2FC14
:10023000DF4800680A28D3D1D748C07803280CDDEE
:10024000082009F009FCDDA2D7A1D8480FF062FD13
:100250000020D149887008700AE00120CE498870DA
:100260000020087004E04FF4FA700EF093FCB7E73A
:1002700000BF00BFD44890ED040AB5EEC00AF1EE0D
:1002800010FA02DD90ED040A04E0CF4890ED040A74
:10029000B1EE400AF3EE040AB4EEE00AF1EE10FA11
:1002A00016DCCA4890ED040AB5EEC00AF1EE10FA69
:1002B00002DD90ED040A04E0C44890ED040AB1EEBA
:1002C000400ADFEDC30AB4EEE00AF1EE10FA2FDDCA
:1002D000C0480078012826D1BF48007C012803D0FF
:1002E000BD48407C01281ED10121002009F072F890
:1002F0000121052008F06AFB0121062008F066FBB9
:100300000121072008F062FB0121082008F05EFBB4
:100310000020B0490870082009F09EFBAFA2A2A1FE
:10032000A2480FF0F7FC4FF47A600EF033FCA1E71F
:100330004FF47A600EF02EFC9CE7002400BF00BF53
:10034000AA480078AA4908700846007820B94FF4F6
:10035000FA600EF01FFCF3E700241EE0A5480078C9
:10036000A8B94FF48070A44908834FF47A700EF056
:1003700011FC4FF48070A04948834FF47A700EF05E
:1003800009FC9A480078401E9849087003E0002054
:100390009649087005E0601CC4B295480078844214
:1003A000DCDB00BF4FF4FA600EF0F4FBC8E700BFDF
:1003B0000121002008F0BAFF01220021052008F0E9
:1003C000E5FB01220021062008F0E0FB01220021CC
:1003D000072008F0DBFB01220021082008F0D6FBF3
:1003E00002207C49087009F053FA42F210700EF0B6
:1003F000D1FB022009F030FB002080490968088108
:100400007F48002102687D4800680DF0B8FE012198
:10041000002008F089FE01221146052008F0B6FBF5
:1004200001221146062008F0B1FB012211460720E7
:1004300008F0ACFB01221146082008F0A7FB0120C0
:10044000644908700121002008F0C4FF0121052043
:1004500008F0BCFA0121062008F0B8FA01210720B3
:1004600008F0B4FA0121082008F0B0FA0020594938
:10047000087001209FED631ADFED620A9FED610AAB
:1004800001F0D2F900BF4948401F4079572815D0E4
:100490004648401F8079652810D04FF48070564937
:1004A000088342F210700EF075FB4FF480705249D1
:1004B000488342F210700EF06DFBE4E7032009F070
:1004C000CBFA00BF00BF3948401F007820B1012897
:1004D00060D002285FD185E1002048490968088181
:1004E000474800210268454800680DF048FE00BFFB
:1004F0000120DFED454AB3EE044AF3EE0E3AB3EEC7
:10050000043ADFED402A9FED322AF3EE041A9FED04
:100510003F1ADFED3F0A9FED3B0A05F01FFC01206B
:10052000DFED394AB3EE044AF3EE0E3AB3EE043A85
:10053000DFED342A9FED262AF3EE041A9FED351ADB
:10054000DFED330A9FED340A05F008FC0120DFEDF2
:100550002E4AB3EE044AF3EE0E3AB3EE043ADFED60
:10056000292A9FED1B2AF3EE041A9FED261ADFEDD0
:10057000180A9FED2A0A05F0F1FB0020F3EE0E0A9F
:100580009FED270A06F0A3FA01209FED1E1ADFED6A
:10059000100A47E038E1ACE1248D00204779726F02
:1005A000496E6974457272002573000081820020D3
:1005B000D000002048960020CDCC4C3D4779726F8A
:1005C0004472696674000000C89500206895002098
:1005D00000004842408D00205C8C00204F75744F15
:1005E00066436F6E74726F6C00000000F5010020AE
:1005F000CC000020CD00002000000240E4000020DC
:10060000FC0000200000000000008C420000B4420A
:100610000000484300003443000048C3000048C2C3
:100620000000B4431FED030A01F0FEF80020FE496C
:1006300009680881FD4800210268FB4800680DF048
:100640009EFDFB48D0ED021AB0EE611AD0ED011A02
:10065000F0EE610AD0ED001AB0EE610A00205FED05
:10066000174A1FED184AF2EE043A1FED1A3A5FEDF1
:100670001B2AB3EE042AF3EE041A05F06FFB0020E8
:10068000E94909680881E94800210268E6480068EC
:100690000DF075FD012211465FED263A1FED273A58
:1006A0005FED282A9FEDE32A5FED371A1FED381A18
:1006B000F3EE040A1FED2D0ADF4806F017FC0122B5
:1006C00011465FED303A1FED313A5FED322A1FEDF2
:1006D000332A5FED411A1FED421A5FED430A1FED09
:1006E000370AD64806F002FC012211465FED3B3A7C
:1006F0001FED3C3A5FED3D2A1FED3E2A5FED4C1A9F
:100700001FED4D1A5FED4E0A1FED420ACC4806F070
:10071000EDFB012211465FED453A1FED463A5FEDD4
:10072000472A1FED482A5FED561A1FED571A5FED55
:10073000580A1FED4C0AC34806F0D8FB01221146A7
:100740005FED503A1FED513A5FED522A1FED532AEB
:100750005FED611A1FED621A5FED630A1FED570A24
:10076000B94806F0C3FB012200215FED5A3A1FEDA4
:100770005B3ADFEDB02A1FED5D2A5FED5E1A1FEDDB
:100780006C1A5FED6D0A1FED610AB04806F0AEFB12
:100790000020A54909680881A44800210268A248F0
:1007A00000680DF0ECFCAA48D0ED021AB0EE611A18
:1007B000D0ED011AF0EE610AD0ED001AB0EE610A38
:1007C00000205FED6F4AB3EE044AF3EE0E3AB3EE4B
:1007D000043A5FED742A1FED822AF3EE041A05F045
:1007E000BDFA85E600BF00208F49096808818F485F
:1007F000002102688C4800680DF0C1FC00BF4FF476
:10080000FA700EF0C7F9EEE700BF002086490968CC
:100810000881864800210268834800680DF0AFFC1B
:100820008C48D0ED0E2AF0EE623AD0ED0D2AB0EEF3
:10083000623AD0ED012AB0EE622AD0ED022AF0EE43
:10084000621A007800EB40018248103000EB810012
:10085000D0ED022AB0EE621A7E48007800EB40012B
:100860007C48103000EB8100D0ED012AF0EE620AE6
:100870007848007800EB40017648103000EB8100AA
:10088000D0ED002AB0EE620A00205FEDA24A1FED13
:10089000A34A5FEDA42A05F061FA002062490968C5
:1008A00008816248002102685F4800680DF067FC1B
:1008B000684890ED0E0AF0EE403A90ED0D0AB0EE69
:1008C000403A90ED010AB0EE402A90ED020AF0EEB7
:1008D000401A00205FEDB54A1FEDB64A5FEDB72A1A
:1008E0001FEDB81A5FEDB90A1FEDBA0A05F036FA26
:1008F0008BE700BF00BF00BF4FF4807056490883EC
:1009000042F210700EF046F94FF48070524948835D
:1009100042F210700EF03EF9EEE700BF4FF4FA70AD
:100920000EF038F900BF4FF4FA700EF033F9FAE721
:1009300000BF00BF494890F90200401C10B9474869
:10094000007830B14348007848B94448007801281D
:1009500005D11020404948834020088304E040200E
:100960003D494883102008833D49087809F016F86E
:1009700080203949488341F288300EF00BF98020FD
:100980003549088341F288300EF004F9D2E708B502
:1009900000BF0EF03EFB0EF0D3F932490860002094
:1009A0000DF067FB204908602F48016800200CF01B
:1009B000DDFB2E4908602E48016800200CF0D6FBB4
:1009C0002C490860002007F0BBFD002000F032FD3C
:1009D000002002F077FF002007F08CFE224800681C
:1009E0004FF4FA73022200210090204800680CF0B6
:1009F00023FD1F4800684FF4FA7302220021009083
:100A00001C4800680CF018FD3C231B4A00211B48C1
:100A10000DF07AFD1E231A4A00211A480DF074FDCC
:100A20000A23194A002131E0E4000020FC000020E4
:100A3000000000209A99993E0C0000202C00002014
:100A40004C0000206C0000208C000020AC00002036
:100A500070820020E88C0020000002407C82002090
:100A6000D4000020E00000200C010020F400002051
:100A700010010020F80000206C320020310900082D
:100A80006C6200201B0900086C22002033480DF026
:100A90003BFD3723324A002132480DF035FD232338
:100AA000314A002131480DF02FFD314800680EF029
:100AB0004BF902F071FF08F0E7FF4FF4FA600EF017
:100AC00069F800BF05F00CF961200EF063F8F9E752
:100AD00010B50BF0C1FD4FF4806101F00702254B0A
:100AE00018684FF6FF031840234B034343EA0220E4
:100AF000204B186000BF00F049F808F00BFF08F029
:100B000091FF08F02BFF09F009F80021012000F007
:100B100005F90021022002F0C7F907F06FFB02F08F
:100B2000B9FF03F0C9F803F0F9F903F03BFB03F058
:100B300073FC0121114803F0C1FD0221104803F0AC
:100B4000BDFD0BF06DFF05230E4A00210E480DF090
:100B5000DBFC0CF08CF8002010BD0000AF03000897
:100B60006C7200203B0300086C8200209D0100088D
:100B7000E00000200CED00E00000FA056C8D002084
:100B80002C9000206C1200208F0900081FB5504BDC
:100B90000FCB8DE80F0002204E4908704FF47A7099
:100BA00048609FED4D0A084680ED020AB2EE0F0A3A
:100BB0004A4880ED000AB2EE0F0A80ED010AB2EE5B
:100BC0000E0A80ED030AB2EE080A80ED040A084618
:100BD00090ED020ADFED420A20EE200A3F48D0EDF8
:100BE000030A9FED401A60EE810A80EE201A80ED24
:100BF000051AB7EE000A80ED060A9FED3B0A80ED6C
:100C0000070A042039490870FF208870C870052041
:100C100048700220087169463448401D0EF05CFAA5
:100C20009FED330A334880ED160A002032490870E0
:100C300032490870012088700020C8704870012077
:100C400008712F4908709FED2A0A084680ED010AB5
:100C50009FED270A80ED0D0A9FED250A80ED0E0A13
:100C60009FED280A80ED0A0A9FED260A80ED0B0A07
:100C70009FED240A80ED0C0A9FED230A80ED040A03
:100C80009FED200A80ED050A9FED1E0A80ED060A01
:100C90009FED1C0A80ED070A9FED1B0A80ED080AF4
:100CA0009FED180A80ED090A9FED160A80ED030AF0
:100CB0009FED160A80ED020A0020154948708870E1
:100CC000C8701449487008700120134948701FBD4E
:100CD000D8110108408D0020EF3896414C8D00203E
:100CE00000007042DC0F49406666663F7C8200204F
:100CF0000000C8425C8C0020BC8C0020D400002086
:100D0000E88C0020000000000000FA430000484288
:100D1000248D0020D9000020DB00002030B58BB0EE
:100D200005460C46012148060AF0BDFA0121084695
:100D30000AF086FA09220B21FE480AF0C6F80922B9
:100D40000C21FC480AF0C1F802208DF818004FF47D
:100D5000C050059005A9F7480AF02CF814208DF82A
:100D600028008DF829508DF82A4001208DF82B009D
:100D70000AA809F07AF8F04809F0E2F807A809F0A3
:100D800003FA00208DF822008DF823008DF824004E
:100D90008DF825008DF826008DF827008DF81E00AF
:100DA0008DF81F0008208DF8200003208DF8210009
:100DB000ADF81C0007A9E04809F0DBF800208DF829
:100DC0000E008DF80F0001208DF810004FF4FF6029
:100DD000ADF804004FF60700ADF8080040F6080033
:100DE000ADF806004FF6F070ADF80A000020ADF83F
:100DF0000C0001208DF8110001A809F044F902212E
:100E0000CD4809F042FD0221CB4809F080FC0122C7
:100E10000221C94809F036FC0BB030BD50B52DEDAC
:100E20000C8B85B00221C44809F02FFD0221C24875
:100E300009F06DFC0221C04809F08CFC00287CD030
:100E40006A460021BC4809F002FBBC4901980844ED
:100E500030B1B0F5003F71D0B0F5E02F6FD147E26F
:100E60009DF80B0041286BD19DF80C00522868D0EA
:100E700006DC412866D0432865D0502809D104E01B
:100E8000532841D05828F9D1B2E19DF80A0008282A
:100E900000D0DAE10120AA4948709DF80D109DF8B4
:100EA0000E0041EA002000B200EE100AB8EEC00ABF
:100EB000DFEDA40A20EE200AA34880ED000A9DF889
:100EC0000F109DF8100041EA002000B200EE100A59
:100ED000B8EEC00ADFED9B0A20EE200A9A4880EDAA
:100EE000010A9DF811109DF8120041EA002000B29D
:100EF00000EE100AB8EEC00ADFED920A20EE200ADA
:100F0000914880ED020AA0E19DF80A00082800D06F
:100F10009BE19DF80D209DF80E1042EA012108B2D8
:100F20000EF02EFB41EC190B9FED880B53EC102BB0
:100F30000EF045FA41EC180B06E077E295E12EE25F
:100F400084E161E174E147E10EF03EFB00EE100A3E
:100F5000804880ED010A9DF80F209DF8101042EAAC
:100F6000012108B20EF00CFB41EC190B9FED770B41
:100F700053EC102B0EF023FA41EC180B0EF024FB6F
:100F800000EE100A734880ED020A9DF811209DF8CA
:100F9000121042EA012108B20EF0F2FA41EC190BEC
:100FA0009FED6A0B53EC102B0EF009FA41EC180B75
:100FB0000EF00AFB00EE100A674880ED030A624853
:100FC000D0ED020A9FED651A80EE810ADFED640A1A
:100FD00020EE200A10EE106A30460EF0E2FA41ECE4
:100FE0001D0BB0EE4D0AF0EE6D0A0FF03DFAB0EEBB
:100FF00040BAF0EE60BA574890ED020A10EE101AAF
:1010000008460EF0CEFA41EC1C0B53EC1B2B0EF0F5
:10101000D6F941EC190B4C4890ED020ADFED4F0A6E
:1010200080EE201A9FED4E0A21EE000A10EE106AA3
:1010300030460EF0B6FA41EC1D0BB0EE4D0AF0EE64
:101040006D0A0FF0ADF9B0EE40BAF0EE60BA41486B
:1010500090ED010A10EE101A08460EF0A2FA41ECCB
:101060001C0B53EC1B2B0EF0AAF941EC1A0B53ECA2
:10107000192B0EF0FDF841EC180B0EF0A5FA00EE5E
:10108000100A354880ED010A2F48D0ED020A9FED85
:10109000331A80EE810ADFED320A20EE200A10EECC
:1010A000106A30460EF07DFA41EC1D0BB0EE4D0A91
:1010B000F0EE6D0A0FF074F9B0EE40BAF0EE60BADF
:1010C000244890ED020A10EE101A08460EF069FA54
:1010D00041EC1C0B53EC1B2B0EF071F941EC1A0B7D
:1010E0001948D0ED020A9FED1D1A80EE810ADFED4E
:1010F0001C0A20EE200A10EE106A30460EF051FA5B
:1011000041EC1D0BB0EE4D0AF0EE6D0A0FF0ACF99C
:10111000B0EE40BAF0EE60BA0E4890ED010AB1EEC2
:10112000400A10EE101A08460EF03BFA41EC1C0B78
:1011300018E000000000024000640040FFFEFDFFD8
:10114000248D0020CDCCCC3D489600209A999999C9
:101150009999B93FD0960020909600200000344322
:10116000DC0F494053EC1B2B0EF029F941EC180B16
:1011700053EC1A2B0EF07CF841EC190B0EF024FA0C
:1011800000EE100AFE4880ED020A90ED010AD0ED53
:10119000010A20EE200AD0ED020A90ED021A00EEBC
:1011A000810A10EE101A08460EF0FBF941EC190BFB
:1011B000B0EE490AF0EE690A0FF0BAF9B0EE408AD3
:1011C000F0EE608A51EC180B0EF0FEF900EE100AFA
:1011D000EB4880ED000A38E0EA484068401CE949E5
:1011E00048600020087308460069401E08612CE032
:1011F000E4484068401CE349486000200873084602
:101200000069401E086120E0DE484068401CDD495E
:1012100048600020087308460069401E0861DA48EB
:10122000012211460368D94800680CF045FA0CE029
:101230009DF80D00532807D19DF80E004B2803D1CF
:101240009DF80F00D249487000BF0DE09DF80B00DB
:10125000402808D1CC48012211460368CB480068D9
:101260000CF02AFA00E09BE000BF9DF80B00432839
:101270002FD19DF80C00422804D044281ED05328BA
:1012800025D10DE0BF48C06E401CBE49C866002194
:10129000BC4880F87410806F401EBA49886717E018
:1012A000B848C06E401CB749C8660021B54880F8F0
:1012B0007410806F401EB349886709E00DF040FD4F
:1012C000B4490860084600680DF03EFD00E000BF2C
:1012D0000DE09DF80B00402808D1AB4801221146D3
:1012E0000368AA4800680CF0E7F900E058E000BF86
:1012F0009DF80B00422850D19DF80C00462837D0AD
:1013000004DC422807D0442845D128E0532814D0D3
:10131000662840D13EE09B48D0F83C01401C9949EA
:10132000C1F83C010021974880F84411D0F84801E9
:10133000401E9449C1F848012EE09248D0F83C0183
:10134000401C9049C1F83C0100218E4880F84411AE
:10135000D0F84801401E8B49C1F848011CE00DF04F
:10136000EFFC8C490860084600680DF0EDFC13E0C6
:101370008448D0F83C01401C8249C1F83C0100215E
:10138000804880F84411D0F84801401E7D49C1F8DA
:10139000480101E000E000BF00E001E000BF00BF45
:1013A00000BF00243FE07C48005D9DF80B108842A0
:1013B00037D17A484188083000EB0110407B012882
:1013C0002ED17648808875494988884228D073484C
:1013D0004188083000EB0110007800F00F00A842AF
:1013E0001ED16E484188083000EB011040799DF80D
:1013F0000B10884214D169484188083000EB011075
:1014000081799DF80C0081420AD164484088401CD3
:101410006249097890FBF1F201FB12005F494880B4
:1014200003E0601CC4B2082CBDDB00BF05B0BDECFE
:101430000C8B50BD59498988491C584A127891FB38
:10144000F2F302FB1311554A5288914205D15449D7
:101450000978491C524A117070474FF480324F4945
:101460008B88083101EB03110A6005224B498B88F8
:10147000083101EB03110A71002248498B880831B9
:1014800001EB03114A71432244498B88083101EB77
:1014900003118A71572241498B88083101EB0311EE
:1014A000CA7148223D498B88083101EB03110A7249
:1014B00055223A498B88083101EB03114A723749AA
:1014C0008A88083101EB0211487334498988491C24
:1014D000324A127891FBF2F302FB13112F4A9180EA
:1014E00000BFB9E72D498988491C2C4A127891FB25
:1014F000F2F302FB1311294A5288914205D128497F
:101500000978491C264A117070474FF481322349EB
:101510008B88083101EB03110A6004221F498B8874
:10152000083101EB03110A7101221C498B88083133
:1015300001EB03114A71582218498B88083101EBDD
:1015400003118A71F2EE040A60EE200AFDEEE00A51
:1015500010EE901ACAB211498B88083101EB0311C1
:10156000CA71F2EE040A60EE200AFDEEE00A10EE07
:10157000901A0A0A09498B88083101EB031111E01E
:10158000909600206C8D00200C010020F4000020BB
:10159000248D0020E000002014010020B0970020DE
:1015A0006CA500200A72F8498A88083101EB021103
:1015B0004873F5498988491CF34A127891FBF2F384
:1015C00002FB1311F04A918000BF9DE730B5EE4B4E
:1015D0009B885B1CEC4C247893FBF4F504FB1533DF
:1015E000E94C6488A34205D1E84B1B785B1CE74CAF
:1015F000237030BDE44B9C88083303EB0413186060
:101600000424E14B9D88083303EB05131C71DE4B6A
:101610009C88083303EB041359715224DA4B9D88DC
:10162000083303EB05139C71D74B9D88083303EBFC
:101630000513DC715324D44B9D88083303EB051349
:101640001C72D14B9C88083303EB04135A73CE4BA6
:101650009B885B1CCC4C247893FBF4F504FB15337E
:10166000C94CA38000BFC4E7C7498988491CC64A42
:10167000127891FBF2F302FB1311C34A5288914294
:1016800005D1C2490978491CC04A117070474FF40E
:101690008132BD498B88083101EB03110A600422B5
:1016A000B9498B88083101EB03110A710122B6494F
:1016B0008B88083101EB03114A715922B2498B889A
:1016C000083101EB03118A71F2EE040A60EE200A80
:1016D000FDEEE00A10EE901ACAB2AB498B880831D1
:1016E00001EB0311CA71F2EE040A60EE200AFDEE6E
:1016F000E00A10EE901A0A0AA3498B88083101EB20
:1017000003110A72A0498A88083101EB021148735B
:101710009D498988491C9C4A127891FBF2F302FB8F
:101720001311994A918000BFB0E797498988491CF5
:10173000954A127891FBF2F302FB1311924A5288F8
:10174000914205D191490978491C904A117070471E
:101750004FF481328C498B88083101EB03110A6008
:10176000042289498B88083101EB03110A71012297
:1017700085498B88083101EB03114A714C2282495B
:101780008B88083101EB03118A71B2EE041A20EE46
:10179000011ABDEEC11A11EE101ACAB27A498B882D
:1017A000083101EB0311CA71B2EE041A20EE011ADE
:1017B000BDEEC11A11EE101A0A0A73498B8808315E
:1017C00001EB03110A72B2EE041A20EE811ABDEE8B
:1017D000C11A11EE101ACAB26B498B88083101EB9D
:1017E00003114A72B2EE041A20EE811ABDEEC11A3C
:1017F00011EE101A0A0A64498B88083101EB0311B3
:101800008A7261498A88083101EB021148735E4986
:101810008988491C5C4A127891FBF2F302FB131190
:10182000594A918000BF92E757498988491C564A16
:10183000127891FBF2F302FB1311534A5288914242
:1018400005D152490978491C504A117070474FF42C
:1018500081324D498B88083101EB03110A6008225F
:1018600049498B88083101EB03110A71012246496D
:101870008B88083101EB03114A71522242498B884F
:10188000083101EB03118A71F2EE041A60EE211A9D
:10189000FDEEE11A11EE901ACAB23B498B8808316D
:1018A00001EB0311CA71F2EE041A60EE211AFDEE8B
:1018B000E11A11EE901A0A0A33498B88083101EBBC
:1018C00003110A72F2EE041A60EEA11AFDEEE11A9B
:1018D00011EE901ACAB22C498B88083101EB031122
:1018E0004A72F2EE041A60EEA11AFDEEE11A11EE50
:1018F000901A0A0A24498B88083101EB03118A7275
:10190000F2EE041A61EE211AFDEEE11A11EE901AC0
:10191000CAB21D498B88083101EB0311CA72F2EE7D
:10192000041A61EE211AFDEEE11A11EE901A0A0A6C
:1019300015498B88083101EB03110A7312498A8813
:10194000083101EB021148730F498988491C0E4A7E
:10195000127891FBF2F302FB13110B4A918000BF46
:1019600074E709488088401C0749097890FBF1F228
:1019700001FB120004494988884209D103480078D4
:10198000401C024908707047B09700206CA50020E9
:101990004FF49031F9488288083000EB0210016062
:1019A0000421F6488288083000EB02100171012101
:1019B000F2488288083000EB021041719A21EF480A
:1019C0008288083000EB021081715A21EB4882882E
:1019D000083000EB0210C1714321E84882880830CA
:1019E00000EB02100172E5488088401CE349097849
:1019F00090FBF1F201FB1200E049888000BFC2E7D2
:101A0000DE488088401CDD49097890FBF1F201FB3B
:101A10001200DA494988884205D1D9480078401C2B
:101A2000D749087070474FF49031D4488288083005
:101A300000EB021001600421D0488288083000EBDE
:101A4000021001710121CD488288083000EB02109C
:101A50004171C121C9488288083000EB02108171B0
:101A60004C21C6488288083000EB0210C171C3487F
:101A70008288083000EB02100172C0488088401C48
:101A8000BE49097890FBF1F201FB1200BB49888046
:101A900000BFC7E7B9498988491CB84A127891FB49
:101AA000F2F302FB1311B54A5288914205D1B449B1
:101AB0000978491CB24A117070474FF49032AF490F
:101AC0008B88083101EB03110A600722AB498B8830
:101AD000083101EB03110A710222A8498B880831F1
:101AE00001EB03114A71BA22A4498B88083101EB3A
:101AF00003118A715A22A1498B88083101EB031125
:101B0000CA7153229D498B88083101EB03110A7277
:101B100000229A498B88083101EB03114A729749D8
:101B20008A88083101EB0211488194498988491C4F
:101B3000924A127891FBF2F302FB13118F4A9180C3
:101B400000BFB9E710B58D4A9288521C8B4B1B78A9
:101B500092FBF3F403FB1422884B5B889A4205D175
:101B6000874A1278521C864B1A7010BD4FF490337E
:101B7000824A9488083202EB0412136007237F4ADA
:101B80009488083202EB0412137101237B4A948873
:101B9000083202EB041253719023784A9488083279
:101BA00002EB041293715023744A9488083202EBBA
:101BB0000412D3715323714A9488083202EB041241
:101BC00013726E4A9388083202EB031250726B4A0A
:101BD0009388083202EB03125181684A9288521CA2
:101BE000664B1B7892FBF3F403FB1422634B9A8041
:101BF00000BFBAE710B5614A9288521C5F4B1B7850
:101C000092FBF3F403FB14225C4B5B889A4205D1F0
:101C10005B4A1278521C5A4B1A7010BD4FF4903325
:101C2000564A9488083202EB041213600723534A81
:101C30009488083202EB0412137101234F4A9488EE
:101C4000083202EB04125371B0234C4A94880832D4
:101C500002EB041293715023484A9488083202EB35
:101C60000412D3715823454A9488083202EB0412B7
:101C70001372424A9388083202EB031250723F4AB1
:101C80009388083202EB031251813C4A9288521C1D
:101C90003A4B1B7892FBF3F403FB1422374B9A80E8
:101CA00000BFBAE710B5354A9288521C334B1B78F7
:101CB00092FBF3F403FB1422304B5B889A4205D16C
:101CC0002F4A1278521C2E4B1A7010BD4FF49033CD
:101CD0002A4A9488083202EB041213600723274A29
:101CE0009488083202EB041213710123234A94886A
:101CF000083202EB041253717323204A948808328D
:101D000002EB0412937153231C4A9488083202EBAD
:101D10000412D3714423194A9488083202EB041246
:101D20001372164A9388083202EB03125072134A58
:101D30009388083202EB03125181104A9288521C98
:101D40000E4B1B7892FBF3F403FB14220B4B9A808F
:101D500000BFBAE710B5094A9288521C074B1B789E
:101D600092FBF3F403FB1422044B5B889A4209D1E3
:101D7000034A1278521C024B1A7010BDB097002013
:101D80006CA500204FF49033FE4A9488083202EB91
:101D9000041213600723FB4A9488083202EB0412F2
:101DA00013710123F74A9488083202EB041253712D
:101DB0006C23F44A9488083202EB04129371532383
:101DC000F04A9488083202EB0412D3714C23ED4A96
:101DD0009488083202EB04121372EA4A938808329C
:101DE00002EB03125072E74A9388083202EB0312A7
:101DF0005181E44A9288521CE24B1B7892FBF3F427
:101E000003FB1422DF4B9A8000BFB6E710B5DD4A12
:101E10009288521CDB4B1B7892FBF3F403FB1422D9
:101E2000D84B5B889A4205D1D74A1278521CD64BC0
:101E30001A7010BD4FF49033D24A9488083202EBE6
:101E4000041213600623CF4A9488083202EB04126E
:101E500013710123CB4A9488083202EB04125371A8
:101E60006323C84A9488083202EB04129371432317
:101E7000C44A9488083202EB0412D3714D23C14A3C
:101E80009488083202EB04121372BE4A9388083217
:101E900002EB03125072BB4A9388083202EB031222
:101EA0009172B84A9288521CB64B1B7892FBF3F49D
:101EB00003FB1422B34B9A8000BFBAE7B148808875
:101EC000401CB049097890FBF1F201FB1200AD49CA
:101ED0004988884205D1AC480078401CAA4908705E
:101EE00070474FF49031A7488288083000EB021009
:101EF00001600421A3488288083000EB02100171C0
:101F00000121A0488288083000EB02104171722143
:101F10009C488288083000EB021081715221994858
:101F20008288083000EB0210C1714C2195488288EC
:101F3000083000EB0210017292488088401C9149E1
:101F4000097890FBF1F201FB12008E49888000BFF6
:101F5000C6E78C488088401C8A49097890FBF1F2DA
:101F600001FB120087494988884205D186480078DC
:101F7000401C8549087070474FF490318148828831
:101F8000083000EB0210016004217E48828808308E
:101F900000EB0210017101217A488288083000EBC1
:101FA00002104171742177488288083000EB0210DA
:101FB0008171532173488288083000EB0210C1718F
:101FC000542170488288083000EB021001726D487D
:101FD0008088401C6B49097890FBF1F201FB1200EC
:101FE0006849888000BFC6E766488088401C65490C
:101FF000097890FBF1F201FB12006249498888429E
:1020000005D161480078401C5F49087070474FF463
:1020100090315C488288083000EB02100160042196
:1020200058488288083000EB0210017101215548A0
:102030008288083000EB0210417162215148828889
:10204000083000EB0210817142214E48828808302E
:1020500000EB0210C17147214A488288083000EB2A
:102060000210017247488088401C4649097890FB5D
:10207000F1F201FB12004349888000BFC6E74149E5
:102080008988491C3F4A127891FBF2F302FB131135
:102090003C4A5288914205D13B490978491C3A4A49
:1020A000117070474FF4903236498B88083101EB3C
:1020B00003110A60052233498B88083101EB0311B3
:1020C0000A7101222F498B88083101EB03114A71F3
:1020D00061222C498B88083101EB03118A7141225E
:1020E00028498B88083101EB0311CA715022254918
:1020F0008B88083101EB03110A7222498A88083162
:1021000001EB021148721F498988491C1D4A127847
:1021100091FBF2F302FB13111A4A918000BFC0E752
:1021200018498988491C174A127891FBF2F302FB7F
:102130001311144A5288914205D113490978491C58
:10214000114A117070474FF490320E498B88083154
:1021500001EB03110A6005220A498B88083101EB63
:1021600003110A71012207498B88083101EB031121
:102170004A71812203498B88083101EB03118A716E
:10218000412203E0B09700206CA50020F8498B881D
:10219000083101EB0311CA715322F5498B880831CC
:1021A00001EB03110A72F2498A88083101EB02112E
:1021B0004872EF498988491CED4A127891FBF2F385
:1021C00002FB1311EA4A918000BFBBE7E848808810
:1021D000401CE749097890FBF1F201FB1200E44949
:1021E0004988884205D1E3480078401CE1490870DD
:1021F00070474FF48231DE488288083000EB0210CD
:1022000001600421DA488288083000EB0210017175
:102210000221D7488288083000EB02104171612109
:10222000D3488288083000EB021081715321D048D6
:102230008288083000EB0210C1714B21CC488288A3
:10224000083000EB02100172C9488088401CC84960
:10225000097890FBF1F201FB1200C549888000BFAC
:10226000C6E7C3488088401CC149097890FBF1F259
:1022700001FB1200BE494988884205D1BD4800785B
:10228000401CBC49087070474FF48231B8488288BE
:10229000083000EB021001600421B5488288083044
:1022A00000EB021001710221B1488288083000EB76
:1022B000021041717321AE488288083000EB021091
:1022C00081715421AA488288083000EB0210C17144
:1022D0005021A7488288083000EB02100172A44800
:1022E0008088401CA249097890FBF1F201FB1200A2
:1022F0009F49888000BFC6E79D488088401C9C4954
:10230000097890FBF1F201FB120099494988884253
:1023100005D198480078401C9649087070474FF4E2
:10232000903193488288083000EB0210016004214C
:102330008F488288083000EB0210017101218C481F
:102340008288083000EB021041716321884882883E
:10235000083000EB021081714B21854882880830DB
:1023600000EB0210C17182488288083000EB021035
:1023700001727F488088401C7D49097890FBF1F20A
:1023800001FB12007A49888000BFC7E7784880883F
:10239000401C7749097890FBF1F201FB1200744967
:1023A0004988884205D173480078401C71490870FB
:1023B00070474FF490316E488288083000EB02106D
:1023C000016004216A488288083000EB0210017124
:1023D000012167488288083000EB021041716321B7
:1023E00063488288083000EB021081714721604801
:1023F0008288083000EB0210C1715D488288083085
:1024000000EB021001725A488088401C5849097834
:1024100090FBF1F201FB12005549888000BFC7E72D
:1024200053488088401C5249097890FBF1F201FB27
:1024300012004F494988884205D14E480078401C17
:102440004C49087070474FF49831494882880830E9
:1024500000EB02100160042145488288083000EB3F
:1024600002100171012142488288083000EB0210FD
:10247000417163213E488288083000EB021081716F
:102480004B213B488288083000EB0210C17138486C
:102490008288083000EB0210017235488088401CA9
:1024A0003349097890FBF1F201FB12003049888032
:1024B00000BFC7E72E488088401C2D49097890FB53
:1024C000F1F201FB12002A494988884205D12948C6
:1024D0000078401C2749087070474FF49831244811
:1024E0008288083000EB02100160042120488288B5
:1024F000083000EB0210017101211D48828808306C
:1025000000EB02104171632119488288083000EB0A
:1025100002108171472116488288083000EB0210B2
:10252000C17113488288083000EB02100172104814
:102530008088401C0E49097890FBF1F201FB1200E3
:102540000B49888000BFC7E709488088401C0849BC
:10255000097890FBF1F201FB120005494988884295
:102560000AD104480078401C0249087070470000F6
:10257000B09700206CA500204FF49831F74882886E
:10258000083000EB021001600321F4488288083013
:1025900000EB021001710121F0488288083000EB45
:1025A000021041716221ED488288083000EB021070
:1025B00081716721E9488288083000EB0210C171FF
:1025C000E6488088401CE549097890FBF1F201FB60
:1025D0001200E249888000BFC8E7E0488088401CBC
:1025E000DE49097890FBF1F201FB1200DB494988D2
:1025F000884205D1DA480078401CD94908707047F4
:102600004FF49831D5488288083000EB0210016001
:102610000421D2488288083000EB021001710221A7
:10262000CE488288083000EB021041716321CB480C
:102630008288083000EB021081714B21C7488288E4
:10264000083000EB0210C171C4488288083000EBEA
:1026500002100172C1488088401CC049097890FB73
:10266000F1F201FB1200BD49888000BFC7E7BB48FB
:102670008088401CB949097890FBF1F201FB1200F7
:10268000B6494988884205D1B5480078401CB4490C
:10269000087070474FF49831B0488288083000EBDA
:1026A000021001600421AD488288083000EB02105E
:1026B00001710221A9488288083000EB02104171A3
:1026C0006321A6488288083000EB021081714721FF
:1026D000A2488288083000EB0210C1719F488288AE
:1026E000083000EB021001729C488088401C9B4916
:1026F000097890FBF1F201FB12009849888000BF35
:10270000C7E796488088401C9449097890FBF1F20D
:1027100001FB120091494988884205D19048007810
:10272000401C8F49087070474FF498318B4882885D
:10273000083000EB021001600421884882880830CC
:1027400000EB021001714F2184488288083000EBB1
:1027500002104171502181488288083000EB02103C
:10276000817145217D488288083000EB0210C171DB
:102770004E217A488288083000EB021001727748B7
:102780008088401C7549097890FBF1F201FB12002A
:102790007249888000BFC6E770488088401C6F4936
:1027A000097890FBF1F201FB12006C4949888842DC
:1027B00005D16B480078401C6949087070474FF498
:1027C000983166488288083000EB021001600421CD
:1027D00062488288083000EB0210017143215F4893
:1027E0008288083000EB021041714C215B488288DE
:1027F000083000EB021081714F2158488288083060
:1028000000EB0210C171532154488288083000EB5C
:102810000210017251488088401C5049097890FB91
:10282000F1F201FB12004D49888000BFC6E74B481A
:102830008088401C4949097890FBF1F201FB1200A5
:1028400046494988884205D145480078401C44499A
:10285000087070474FF4903140488288083000EB90
:102860000210016004213D488288083000EB02100C
:102870000171502139488288083000EB0210417103
:10288000492136488288083000EB021081714421CA
:1028900032488288083000EB0210C17157212F485E
:1028A0008288083000EB021001722C488088401C9E
:1028B0002A49097890FBF1F201FB12002749888030
:1028C00000BFC6E725488088401C2449097890FB52
:1028D000F1F201FB120021494988884205D12048C4
:1028E0000078401C1E49087070474FF490311B4817
:1028F0008288083000EB02100160042117488288AA
:10290000083000EB02100171502114488288083011
:1029100000EB02104171492110488288083000EB19
:102920000210817144210D488288083000EB0210AA
:10293000C1714A2109488288083000EB02100172F7
:1029400006488088401C0549097890FBF1F201FB9C
:1029500012000249888000BFC6E70000B09700203F
:102960006CA5002010B5F94A9288521CF74B1B78D1
:1029700092FBF3F403FB1422F44B5B889A4205D1DB
:10298000F34A1278521CF24B1A7010BDEF4A93882A
:10299000083202EB031210600423EC4A94880832D8
:1029A00002EB041213710523E84A9488083202EB03
:1029B000041253715323E54A9488083202EB04123F
:1029C0009371E24A9488083202EB0412D3715423C3
:1029D000DE4A9488083202EB04121372DB4A9388B1
:1029E000083202EB03125173D84A9288521CD74B1B
:1029F0001B7892FBF3F403FB1422D44B9A8000BFA4
:102A0000C3E730B5D14B9B885B1CD04C247893FB3B
:102A1000F4F504FB1533CD4C6488A34205D1CC4BAF
:102A20001B785B1CCA4C237030BDC84B9C88083394
:102A300003EB041318600524C44B9D88083303EB93
:102A400005131C71C14B9D88083303EB05135C71A2
:102A50004124BE4B9D88083303EB05139C7153241E
:102A6000BA4B9D88083303EB0513DC714B24B74B3D
:102A70009D88083303EB05131C72B44B9C88083304
:102A800003EB04135972B14B9C88083303EB041316
:102A90005A73AE4B9B885B1CAC4C247893FBF4F5CB
:102AA00004FB1533A94CA38000BFBDE730B5A74B8D
:102AB0009B885B1CA54C247893FBF4F504FB153331
:102AC000A24C6488A34205D1A14B1B785B1CA04C8F
:102AD000237030BD9D4B9C88083303EB04131860B2
:102AE00005249A4B9D88083303EB05131C710624BB
:102AF000964B9D88083303EB05135C714224934B7E
:102B00009D88083303EB05139C71904B9D88083317
:102B100003EB0513DC7147248C4B9D88083303EBD2
:102B200005131C72894B9C88083303EB04135972FC
:102B3000864B9C88083303EB04135A73834B9B88A2
:102B40005B1C824C247893FBF4F504FB15337F4C1B
:102B5000A38000BFBDE710B57C4A9288521C7B4B16
:102B60001B7892FBF3F403FB1422784B5B889A42A8
:102B700005D1774A1278521C754B1A7010BD734AF2
:102B80009388083202EB0312106004236F4A948882
:102B9000083202EB0412137106236C4A948808323F
:102BA00002EB041253715323684A9488083202EBF3
:102BB00004129371654A9488083202EB0412D371AF
:102BC0005423624A9488083202EB041213725F4A5B
:102BD0009388083202EB031251735C4A9288521CAC
:102BE0005A4B1B7892FBF3F403FB1422574B9A8049
:102BF00000BFC3E730B5554B9B885B1C534C247812
:102C000093FBF4F504FB1533504C6488A34205D1C3
:102C10004F4B1B785B1C4E4C237030BD4B4B9C883C
:102C2000083303EB041318600524484B9D880833D0
:102C300003EB05131C710624444B9D88083303EBFA
:102C400005135C714124414B9D88083303EB051348
:102C50009C7153243D4B9D88083303EB0513DC71B5
:102C60004B243A4B9D88083303EB05131C72374BFA
:102C70009C88083303EB04135972344B9C88083347
:102C800003EB04135A73314B9B885B1C2F4C247845
:102C900093FBF4F504FB15332C4CA38000BFBCE779
:102CA00030B52A4B9B885B1C284C247893FBF4F5A9
:102CB00004FB1533254C6488A34205D1244B1B78B3
:102CC0005B1C234C237030BD204B9C88083303EBE6
:102CD0000413186005241D4B9D88083303EB05136E
:102CE0001C710724194B9D88083303EB05135C7195
:102CF0004224164B9D88083303EB05139C71134B3C
:102D00009D88083303EB0513DC7147240F4B9D8826
:102D1000083303EB05131C720C4B9C88083303EB40
:102D200004135972094B9C88083303EB04135A733C
:102D3000064B9B885B1C054C247893FBF4F504FB45
:102D40001533024CA38000BFBDE70000B097002000
:102D50006CA5002010B5524A9288521C504B1B782B
:102D600092FBF3F403FB14224D4B5B889A4205D18E
:102D70004C4A1278521C4B4B1A7010BD484A93882B
:102D8000083202EB031210600423454A948808328B
:102D900002EB041213710723414A9488083202EBB4
:102DA0000412537153233E4A9488083202EB0412F2
:102DB00093713B4A9488083202EB0412D371542376
:102DC000374A9488083202EB04121372344A93880B
:102DD000083202EB03125173314A9288521C304B75
:102DE0001B7892FBF3F403FB14222D4B9A8000BF57
:102DF000C3E730B52A4B9B885B1C294C247893FB96
:102E0000F4F504FB1533264C6488A34205D1254B09
:102E10001B785B1C234C237030BD214B9C880833EE
:102E200003EB0413186005241D4B9D88083303EB46
:102E300005131C7107241A4B9D88083303EB0513F7
:102E40005C714124164B9D88083303EB05139C717C
:102E50005324134B9D88083303EB0513DC714B247B
:102E60000F4B9D88083303EB05131C720C4B9C8899
:102E7000083303EB04135972094B9C88083303EBA6
:102E800004135A73064B9B885B1C054C247893FBF8
:102E9000F4F504FB1533024CA38000BFBCE700002F
:102EA000B09700206CA5002030B58BB005460C46CD
:102EB0000121880608F0F7F90121022008F0C0F985
:102EC00009220521F74808F000F809220621F548F3
:102ED00007F0FBFF02208DF818006020059005A97F
:102EE000F04807F067FF40208DF828008DF8295042
:102EF0008DF82A4001208DF82B000AA806F0B5FFB6
:102F0000E94807F01DF807A807F03EF900208DF802
:102F100022008DF823008DF824008DF825008DF80F
:102F200026008DF827008DF81E008DF81F00082060
:102F30008DF8200003208DF82100ADF81C0007A9B2
:102F4000D94807F016F80F208DF80E0001208DF8F3
:102F50000F0000208DF8100045F22000ADF80400AD
:102F600045F24000ADF8060045F26000ADF80800FB
:102F70004FF4A140ADF80A000020ADF80C0001208C
:102F80008DF8110001A807F07EF810208DF80E00D2
:102F900001208DF80F0000208DF8100045F2A000F0
:102FA000ADF8040045F2C000ADF8060045F2E000BF
:102FB000ADF808004FF4A240ADF80A000020ADF8CB
:102FC0000C0001208DF8110001A807F05CF80E201C
:102FD0008DF80E0001208DF80F0000208DF81000F4
:102FE00043F22000ADF804004FF44150ADF8060064
:102FF00043F26000ADF808004FF44250ADF80A000B
:103000000020ADF80C0001208DF8110001A807F098
:103010003AF80D208DF80E0001208DF80F000020E9
:103020008DF810004FF48150ADF804004FF4825039
:10303000ADF806004FF48350ADF808004FF484500B
:10304000ADF80A000020ADF80C0001208DF8110049
:1030500001A807F018F801220221934807F012FB9B
:103060000BB030BD70B58AB00026904B0FCB06ACCC
:103070000FC402218C4807F008FC02218A4807F09F
:1030800046FB0221884807F065FB00287ED001AA94
:103090000021854807F0DBF9019800F00F041422A5
:1030A00001A983480BF0E8FF0198812802D3019819
:1030B000842807D90198B0F5C07F2CD90198B0F5C4
:1030C000C27F28D89DF80F00402803D09DF80F003C
:1030D00018281FD140F281120198811A904211D014
:1030E00008DC81280DD082280DD083280DD08428BB
:1030F0000FD10CE0012907D0022907D0032908D1FC
:1031000006E007E006E005E004E003E002E001E09D
:1031100000E000BF5FE30198A0F2812030B10128F8
:1031200078D0022871D0032870D161E19DF80F009A
:103130004D2835D006DC42283DD0452854D04928BA
:1031400066D139E0502862D0532833D056285FD159
:103150009DF81000582822D15648012211460368D4
:10316000554800680AF0A8FADDF8130053490860D2
:103170005348406800EE100AB8EE400AB2EE0E1A4C
:10318000C0EE010A084690ED000A00E098E3B8EEB0
:10319000C00A80EE201ABDEEC10A80ED000A37E0B9
:1031A0009DF810004F2804D146480078401C45493E
:1031B00008702DE02CE02BE09DF81000512807D17D
:1031C0000DF10F0090ED010A3F4880ED000A0AE082
:1031D0009DF81000442806D10DF10F0090ED010A72
:1031E0003A4880ED000A13E09DF8100043280AD108
:1031F000DDF81360324636A136480CF08BFD36A15F
:1032000034480BF05DFF03E004E08AE069E100BFB1
:1032100000BFDFE29DF80F004D2833D006DC4228C6
:1032200032D0452868D0492879D12EE0502875D071
:10323000532828D0562872D19DF81000582820D144
:103240001C480122022103681B4800680AF034FA76
:10325000DDF81300194908601948406800EE100AAB
:10326000B8EE400AB2EE0E1AC0EE010A084690ED22
:10327000010AB8EEC00A80EE201ABDEEC10A80ED48
:10328000010A4CE04BE04AE049E09DF8100051286B
:1032900026D10DF10F0090ED010A0B4880ED000AD8
:1032A00029E000000004024000680040E811010825
:1032B0006C93002010010020F8000020DC8F00201B
:1032C000408D002044010020EC8F00200C90002055
:1032D0002533640081820020456C6D6F3100000051
:1032E0009DF81000442806D10DF10F0090ED010A61
:1032F000FE4880ED000A12E09DF8100043280BD133
:10330000DDF813603246AFF23801F9480CF002FDE7
:10331000F8A1F7480BF0D4FE01E0FFE700BF00BFC3
:1033200058E29DF80F004D2833D006DC422832D0F9
:10333000452849D0492859D12EE0502855D0532846
:1033400028D0562852D19DF81000582820D1EB489B
:10335000012204210368EA4800680AF0ADF9DDF8AB
:103360001300E8490860E848406800EE100AB8EE2B
:10337000400AB2EE0E1AC0EE010A084690ED020AAB
:10338000B8EEC00A80EE201ABDEEC10A80ED020A36
:103390002CE02BE02AE029E09DF81000512807D10D
:1033A0000DF10F0090ED010AD84880ED000A0AE007
:1033B0009DF81000442806D10DF10F0090ED010A90
:1033C000CA4880ED000A11E09DF8100043280BD197
:1033D000DDF813603246AFF20811C5480CF09AFCD4
:1033E000CBA1C3480BF06CFE00E000BF00BFF1E1D1
:1033F0009DF80F004D2831D006DC422839D04528F1
:103400005CD049286BD141E0532831D0562866D191
:103410009DF81000582820D1B848012208210368DF
:10342000B74800680AF048F9DDF81300B549C860EC
:10343000B548406800EE100AB8EE400AB2EE0E1A27
:10344000C0EE010A084690ED030AB8EEC00A80EE0D
:10345000201ABDEEC10A80ED030A40E09DF810007D
:103460004F2804D1AC480078401CAB49087036E0C6
:1034700035E09DF81000472807D1A0480122082117
:1034800003689F4800680AF017F928E09DF81000CB
:10349000512807D10DF10F0090ED010A9B4880EDF6
:1034A000030A0AE09DF81000442806D10DF10F0030
:1034B00090ED010A8D4880ED030A10E09DF81000A0
:1034C00043280BD1DDF813603246AFF2FC11884877
:1034D0000CF020FC91A186480BF0F2FD00BF00BF6C
:1034E00078E10198B0F5227F7DD840F285210198DE
:1034F000884278D3814801221021036880480068FF
:103500000AF0DAF89DF80F004D280CD006DC4128AF
:103510004DD0422868D0452848D13EE150287DD082
:103520005328F9D144E09DF810004F283ED101986E
:1035300000F00F00401E00EB800101EBC000794954
:1035400001EBC0004068401C019901F00F01491EC9
:1035500001EB810202EBC101724A02EBC10148603A
:103560000021019800F00F00401E00EB800202EBEA
:10357000C0006C4A02EBC0000173019800F00F001C
:10358000401E00EB800101EBC000114601EBC000C2
:103590000069401E019901F00F01491E01EB8102F3
:1035A00002EBC1015F4A02EBC101086110E10FE1CA
:1035B0009DF81000542844D1019800F00F00401EDF
:1035C00000EB800101EBC000564901EBC0004068F0
:1035D000401C019901F00F01491E01EB810202EB31
:1035E000C101504A01E0F4E0D6E002EBC1014860BD
:1035F0000021019800F00F00401E00EB800202EB5A
:10360000C000484A02EBC0000173019800F00F00AF
:10361000401E00EB800101EBC00000E055E01146C8
:1036200001EBC0000069401E019901F00F01491E25
:1036300001EB810202EBC1013A4A02EBC1010861D0
:1036400042E09DF8100050283ED1019800F00F0094
:10365000401E00EB800101EBC000324901EBC000CD
:103660004068401C019901F00F01491E01EB8102E5
:1036700002EBC1012B4A02EBC10148600021019815
:1036800000F00F00401E00EB800202EBC000254A54
:1036900002EBC0000173019800F00F00401E00EB28
:1036A000800101EBC000114601EBC0000069401E23
:1036B000019901F00F01491E01EB810202EBC101EA
:1036C000184A02EBC101086182E09DF81000492808
:1036D00061D19DF8110044285DD1019800F00F00E0
:1036E000401E00EB800101EBC0001DE00C900020AB
:1036F00081820020456C6D6F3200000010010020B7
:10370000F8000020DC8F0020408D0020EC8F00208E
:10371000456C6D6F3300000044010020456C6D6FF7
:10372000340000002C900020924901EBC00040685A
:10373000401C019901F00F01491E01EB810202EBCF
:10374000C1018C4A02EBC10148600021019800F0E0
:103750000F00401E00EB800202EBC000854A02EB26
:10376000C0000173019800F00F00401E00EB8001C3
:1037700001EBC000114601EBC0000069401E019939
:1037800001F00F01491E01EB810202EBC101794AF0
:1037900002EBC10108611BE01AE09DF8100043280C
:1037A00015D19DF81160324673A174480CF0B2FA3D
:1037B00073A172480BF084FC9DF81260324672A12E
:1037C00006A80CF0A7FA06A96C480BF079FC00BF1C
:1037D00000BF00BF00BF00256FE06C48405D9DF852
:1037E0000F10884267D169480C30415D9DF8100088
:1037F000814260D104EB840000EBC4005D4901EB21
:10380000C0004068401C04EB840101EBC401594A2C
:1038100002EBC1014860002004EB840101EBC4010C
:1038200002EBC101087304EB840000EBC4001146F5
:1038300001EBC0000069401E04EB840101EBC401F0
:1038400002EBC101086152484188083000EB0110C9
:10385000407B01282ED14E4880884D4949888842B6
:1038600028D04B484188083000EB0110007800F068
:103870000F00A0421ED146484188083000EB0110DD
:1038800040799DF80F10884214D141484188083092
:1038900000EB011081799DF8100081420AD13C486B
:1038A0004088401C3A49097890FBF1F201FB120074
:1038B0003749488003E0681CC5B20C2D8DDB00BF82
:1038C0000AB070BD32498988491C314A127891FB8F
:1038D000F2F302FB13112E4A5288914205D12D4971
:1038E0004978491C2B4A517070474FF4803228495F
:1038F0008B88083101EB03110A60052224498B886B
:10390000083101EB03110A71002221498B8808312B
:1039100001EB03114A7143221D498B88083101EBE9
:1039200003118A7157221A498B88083101EB031160
:10393000CA71482216498B88083101EB03110A72BB
:10394000552213498B88083101EB03114A72104943
:103950008A88083101EB021148730D498988491C96
:103960000B4A127891FBF2F302FB1311084A918083
:1039700000BFB9E72C90002025316400818200202F
:103980005475726E45727200253264002801002061
:10399000989900206CA500201FB50121022007F096
:1039A00082FC1D208DF8000000208DF80100012010
:1039B0008DF802008DF80300684606F056FA532091
:1039C000ADF80400C72002900020ADF80C00ADF85F
:1039D000060001A9274807F01EFE0121254807F02F
:1039E00085FE0121234808F0CBFA01221146214827
:1039F00008F0B2FA01211F4807F096FE1FBD10B56E
:103A000001211C4808F0BFFA90B30121194808F0C1
:103A1000B7FA194890ED010ADFED180A30EE200AD6
:103A200080ED010A1648808815494988884203D0EC
:103A30001349012004F00CFC124880881149498880
:103A4000884203D00F49022004F002FC0E4840795E
:103A5000012804D101220A490C4800F086FE0A48D8
:103A60008079012804D102220649094800F07DFE30
:103A700010BD000000040040BC8C002017B7513975
:103A8000B0970020989900206CA500206C8D002034
:103A90002C90002000B597B00121084607F0D0FB1C
:103AA0000121102007F010FC0121880507F0C8FB58
:103AB00007220921774807F008FA07220A217548EA
:103AC00007F003FA4FF4C060119002208DF848000F
:103AD00000208DF84A0003208DF8490000208DF861
:103AE0004B0011A96B4807F065F94FF4E1301390D2
:103AF0000020ADF85000ADF85200ADF85400ADF81C
:103B000058000C20ADF8560013A9634808F076FB66
:103B1000624806F00DFF4FF0006001900020059014
:103B2000402004905E4803905B48001D0290001501
:103B3000079000200690099008900A904FF44030BA
:103B40000B9000200C9001200D9000200F900E9003
:103B500001A9524806F08EFF5249504807F03DF83F
:103B600050494E4807F094F8012210214B4807F0C5
:103B700048F846208DF8400005208DF841000120CE
:103B80008DF842008DF8430010A806F06EF901226E
:103B90008021414808F067FC01213F4808F0B6FB4E
:103BA00017B000BD70B504460D463F48007878B99F
:103BB0002A4621463D480BF05FFA2946374806F071
:103BC000B4FF0121354806F08FFF01203649087007
:103BD00070BD10B53349314807F030F801280AD1DB
:103BE00030492E4806F0F9FF2E492C4807F050F8CE
:103BF00000202D49087010BD10B540F2255126480F
:103C000008F075FC002844D040F22551224808F005
:103C100065FC40F22551204808F0A0FC1E4808F041
:103C2000A4FBC4B22248007800F0400008B320484A
:103C3000007800F0800020BB0D2C06D11C480078D5
:103C400040F080001A4908701BE01948007800F025
:103C50003F0018490C5416480078401C144908705D
:103C60000846007800F03F0020280ADD0020087098
:103C700007E0232C05D10E48007840F040000C49A5
:103C800008700B48007800F0800010B1002008494F
:103C9000087010BD0000024000100140B8640240EE
:103CA0009882002000800028DB0000208093002004
:103CB00048010020B393002000B597B001210846C9
:103CC00007F0BEFA0121480407F0EDFA012148058A
:103CD00007F0B6FA07220221884807F0F6F8072213
:103CE0000321864807F0F1F80C20119002208DF88E
:103CF000480000208DF84A0003208DF8490000207C
:103D00008DF84B0011A97D4807F054F84FF4E130CD
:103D100013900020ADF85000ADF85200ADF85400FB
:103D2000ADF858000C20ADF8560013A9744808F0FF
:103D300065FA012240F22551714808F09DFB2620CA
:103D40008DF8400004208DF8410001208DF84200DC
:103D50008DF8430010A806F088F86A4806F0E8FDE0
:103D60004FF00060019000200590402004906648CC
:103D700003906348001D02900015079000200690F4
:103D8000099008900A904FF440300B9000200C905E
:103D900001200D9000200F900E9001A9594806F0C7
:103DA00069FE5A49574806F018FF5849554806F029
:103DB0006FFF01221021534806F023FF11208DF8D8
:103DC000400007208DF8410001208DF842008DF859
:103DD000430010A806F049F801228021484808F065
:103DE00042FB0121464808F091FA17B000BD10B51A
:103DF0004649444806F022FF01280AD14349414878
:103E000006F0EBFE41493F4806F042FF01204049E1
:103E1000487010BD10B5002440F22551384808F014
:103E200066FB002869D040F22551354808F056FB62
:103E300040F22551324808F091FB314808F095FADC
:103E4000C4B23448007800F0400008B3314800782C
:103E500000F0800020BBFF2C06D12E48007840F0F7
:103E600080002C4908701BE02A48007800F03F00D1
:103E700029490C5427480078401C264908700846F8
:103E8000007800F03F0028280ADD0020087007E0D5
:103E9000EE2C05D11F48007840F040001D49087005
:103EA0001C48007800F0800038B31B4800781228C6
:103EB00019D1194840780C2813D2DFE800F0060722
:103EC00008090A0B0C0D0E0F10110BE00AE009E0B7
:103ED00008E007E006E005E004E003E002E001E0BE
:103EE00000E000BF02E000BF00BF00BF00200949A2
:103EF00008703C2108480BF0D8F810BD00000240C3
:103F000000440040A06002408C84002000802020FB
:103F1000DB00002049010020D393002000B597B0BA
:103F20000121042007F08CF90121880407F0BBF976
:103F30000121480507F084F907220A21924806F07A
:103F4000C4FF07220B21904806F0BFFF4FF44060EA
:103F5000119002208DF8480000208DF84A000320BF
:103F60008DF8490000208DF84B0011A9864806F015
:103F700021FF4FF4E13013900020ADF85000ADF870
:103F80005200ADF85400ADF858000C20ADF85600C2
:103F900013A97E4808F032F9012240F225517B48EE
:103FA00008F06AFA27208DF8400004208DF84100BF
:103FB00002208DF8420001208DF8430010A805F082
:103FC00054FF734806F0B4FC4FF0006001900020ED
:103FD0000590402004906F4803906C48001D0290AB
:103FE0000015079000200690099008900A904FF461
:103FF00040300B9000200C9001200D9000200F907D
:104000000E9001A9624806F035FD6349604806F04C
:10401000E4FD61495E4806F03BFE012210215C4848
:1040200006F0EFFD0E208DF8400007208DF84100CE
:1040300002208DF8420001208DF8430010A805F001
:1040400014FF01228021514808F00DFA01214F4848
:1040500008F05CF917B000BD10B54F494C4806F0A8
:10406000EDFD012807D14C49494806F0B6FD4A4903
:10407000474806F00DFE10BD10B5002440F2255152
:10408000424808F034FA00287DD040F225513F48DC
:1040900008F024FA40F225513C4808F05FFA3B480A
:1040A00008F063F9C4B23D48007800F0400008B35E
:1040B0003A48007800F0800020BBFF2C06D137483A
:1040C000007840F08000354908701BE033480078E4
:1040D00000F03F0032490C5430480078401C2F4912
:1040E00008700846007800F03F0028280ADD00200C
:1040F000087007E0EE2C05D12848007840F0400019
:10410000264908702548007800F0800070B32448E4
:104110000078122819D1224840780C2813D2DFE801
:1041200000F0060708090A0B0C0D0E0F10110BE02A
:104130000AE009E008E007E006E005E004E003E04B
:1041400002E001E000E000BF16E01548C07830B1A1
:10415000012807D0032806D004280BD107E000BFB0
:1041600000BF08E000BF00BF00BF04E00BE000BFDD
:1041700000BF00E000BF00BF0020084908703C21DC
:1041800007480AF092FF10BD0008024000480040B6
:104190005860024080860020008000184A010020FC
:1041A0000F94002000B597B00121084607F048F8A9
:1041B0000121C80407F077F80121480507F040F80D
:1041C000082200218A4806F080FE08220121884842
:1041D00006F07BFE0320119002208DF8480000209D
:1041E0008DF84A0003208DF8490000208DF84B001F
:1041F00011A97F4806F0DEFD4FF4E1301390002056
:10420000ADF85000ADF85200ADF85400ADF85800CC
:104210000C20ADF8560013A9764807F0EFFF0122F5
:1042200040F22551734808F027F934208DF84000FA
:1042300001208DF8410002208DF8420001208DF808
:10424000430010A805F011FE6B4806F071FB4FF01B
:104250000060019000200590402004906748039082
:104260006448001D029000150790002006900990F8
:1042700008900A904FF440300B9000200C900120E1
:104280000D9000200F900E9001A95B4806F0F2FB04
:104290005B49594806F0A1FC5949574806F0F8FC1B
:1042A00001221021544806F0ACFC0F208DF840008C
:1042B00007208DF8410001208DF842008DF8430061
:1042C00010A805F0D2FD012280214A4808F0CBF861
:1042D0000121484808F01AF817B000BD70B504462F
:1042E0000D464848C07878B92A46214646480AF023
:1042F000C3FE2946404806F018FC01213E4806F05E
:10430000F3FB01203F49C87070BD10B540F2253164
:10431000384808F0ECF860B1364808F026F83B4918
:10432000087000203A49087020213A480AF0BDFE82
:104330004AE040F225512F4808F0D9F8002843D030
:1043400020212C4808F0CAF840F22551294808F0ED
:1043500005F9284808F009F82C4908702C4800781D
:1043600000F0400028B32A48007800F08000F8B937
:10437000084600780A2806D12548007840F08000D9
:10438000234908701FE0214800782149097801F08D
:104390003F01204A50541E480078401C1C490870B8
:1043A0000846007800F03F0020280CDD002008704F
:1043B00009E016480078232805D11548007840F018
:1043C00040001349087000BF10BD10B50C490A48E1
:1043D00006F034FC01280AD10949074806F0FDFB24
:1043E0000749054806F054FC00200649C87010BD76
:1043F00000000240004C00407060024074880020C1
:1044000020800020DB0000204C940020540100207C
:104410004C0100207F94002000B597B001210C20B2
:1044200006F00EFF0121080506F03DFF08220C21D1
:10443000974806F04AFD08220221964806F045FDFD
:104440004FF48050119002208DF8480000208DF824
:104450004A0003208DF8490000208DF84B0011A977
:104460008B4806F0A7FC0420119002208DF848002C
:1044700000208DF84A0003208DF8490000208DF8B7
:104480004B0011A9834806F095FC4FF4E1301390DE
:104490000020ADF85000ADF85200ADF85400ADF872
:1044A00058000C20ADF8560013A97B4807F0A6FE73
:1044B000012240F22551784807F0DEFF35208DF8C3
:1044C000400007208DF8410000208DF842000120B7
:1044D0008DF8430010A805F0C8FC704806F028FAD3
:1044E0004FF00060019000200590402004906C483F
:1044F00003906948001D0290001507900020069067
:10450000099008900A904FF440300B9000200C90D6
:1045100001200D9000200F900E9001A95F4806F039
:10452000A9FA60495D4806F058FB5E495B4806F011
:10453000AFFB01221021594806F063FB2F208DF8B4
:10454000400006208DF8410001208DF842008DF8D2
:10455000430010A805F089FC012280214E4807F095
:1045600082FF01214C4807F0D1FE17B000BD10B505
:1045700040F22531484807F0BAFF58B1464807F0E5
:10458000F4FEC4B2002048490870202147480AF0D0
:104590008CFD50E040F225513F4807F0A8FF00286D
:1045A00049D020213C4807F099FF40F225513A4874
:1045B00007F0D4FF384807F0D8FEC4B23A48007874
:1045C00000F0400008B33848007800F0800020BBBD
:1045D0000A2C06D13448007840F080003249087037
:1045E0001BE03148007800F03F0030490C542E4861
:1045F0000078401C2C4908700846007800F03F0005
:1046000020280ADD0020087007E0232C05D1264869
:10461000007840F04000244908702348007800F0FA
:10462000800040B100202049087021480088401CCB
:1046300000B21F49088010BD10B51A49174806F08E
:10464000FDFA01280AD11749144806F0C6FA15499F
:10465000124806F01DFB00201649087110BD70B508
:1046600004460D461348007978B92A462146124877
:104670000AF002FD2946094806F057FA01210748C9
:1046800006F032FA01200B49087170BD7047000036
:1046900000080240000C024000500040B860024098
:1046A000688A002000800028560100202395002001
:1046B00058010020DB000020F094002030B50246B5
:1046C0000023012904D10124FE4D6C71062303E06F
:1046D0000124FC4DAC710823002043E0002400EBD2
:1046E000800505EBC00502EBC5052C6100EB8005DC
:1046F00005EBC00502EBC5052C7300EB800505EB4F
:10470000C00502EBC505AC6000EB800505EBC005FC
:1047100002EBC5056C6000EB800505EBC00542F8B7
:104720003540052400EB800505EBC00502EBC5050F
:104730002C75002500EB800404EBC00402EBC404DC
:10474000657500EB800404EBC00402EBC404A5759E
:1047500000EB800404EBC00402EBC40484F8255091
:10476000441CE0B29842B9DB30BD2DE9F04105466A
:104770000E4617460024A046012F02D14FF006082E
:1047800001E04FF008080024B9E004EB840000EBDE
:10479000C40005EBC000006901287DDB04EB840048
:1047A00000EBC40005EBC000017B04EB840000EBD0
:1047B000C40005EBC000007B401C04EB840202EB4C
:1047C000C40205EBC20210731E2943DBB088401CF3
:1047D000317890FBF1F201FB1200718888421DD103
:1047E00004EB840000EBC40005EBC0008068401CB3
:1047F00004EB840101EBC40105EBC1018860012FCA
:1048000005D1B0480078401CAE49087004E0AD48BE
:104810004078401CAB494870BDE8F08104EB84004F
:1048200000EBC40005EBC000817D04EB840000EBCD
:10483000C40005EBC000407D81420BD10120A1499D
:104840008870002004EB840101EBC40105EBC10179
:104850008860E1E704EB840000EBC40005EBC000D6
:1048600080680A280FD804EB840000EBC40055F8D8
:10487000300004EB840101EBC40105EBC101496880
:10488000401AC82839DD082005F0E6F88E4804EB08
:10489000840101EBC40100E02FE005EBC1010861D8
:1048A000012F1AD1072C16D2DFE804F0040A0B11ED
:1048B0001213140085A288A188480BF02BFA0BE094
:1048C0000AE087A284A185480BF024FA04E003E003
:1048D00002E001E000E000BF0FE024B1012C08D0AD
:1048E000022C08D106E081A27BA17C480BF012FAD1
:1048F00002E001E000E000BF00BF601CC4B244451C
:10490000FFF643AF00BF87E778B5FE24009400238D
:10491000012A4CD106234D8801F1080404EB05144B
:104920002468B4F5813F02D10024009400E000BF68
:1049300000BFBDF800409C4261DABDF8005005EBB5
:10494000850606EBC50500EBC50505F110042D69CC
:104950006D1C2560BDF8005005EB850606EBC5050E
:1049600000EBC50425686D1C2560BDF8005005EB03
:10497000850606EBC50500EBC50505F10C042D7B8E
:104980006D1C2570BDF8004004EB840505EBC404E4
:1049900000EBC404247B0A2C31DD4A4CE479BDF8D9
:1049A00000600125B5402C43464DEC7127E00823FB
:1049B0004D8801F1080404EB05142468A4F5407443
:1049C000072C1AD2DFE804F004070A0D10161300B2
:1049D0000024009412E0012400940FE002240094CB
:1049E0000CE00324009409E00424009406E005246C
:1049F000009403E00624009400E000BF00BFBDF86F
:104A000000409C4228DABDF8004004EB840505EB29
:104A1000C40400EBC404A47D641CBDF8005005EB85
:104A2000850606EBC50500EBC5052D7D94FBF5F667
:104A300005FB1645BDF8004004EB840606EBC404F4
:104A400000EBC404647DA5420DD1012A05D11D4CA3
:104A50002478641C1B4D2C7059E01A4C6478641C3B
:104A6000184D6C7053E0BDF8005005EB850606EB61
:104A7000C50500EBC50505F110042D696D1C256009
:104A8000BDF8005005EB850606EBC50500EBC50437
:104A900025686D1C2560BDF8005005EB850606EB0A
:104AA000C50500EBC50505F10C042D7B6D1C2570BB
:104AB000BDF8004004EB840505EBC40400EBC4041E
:104AC000247B19E06CA50020F0D8FFFF4779726FB6
:104AD0004E6F64654572720025730000818200206C
:104AE000445435304E6F646565727200656C6D6F4D
:104AF0004120657272000000642C08DD044C247AA9
:104B0000BDF800600125B5402C43014D2C7278BDE5
:104B10006CA500209FEDFE0A80ED060A9FEDFC0AC1
:104B200080ED050A9FEDFA0A80ED030A9FEDF80A71
:104B300080ED040A9FEDF60A80ED070A91ED000A68
:104B400080ED000A91ED010A80ED010A91ED020A63
:104B500080ED020A7047EF48D0ED020A70EE600A5D
:104B6000ED48C0ED040AD0ED040AF5EEC00AF1EEFE
:104B700010FA02DDD0ED040A04E0E748D0ED040AA3
:104B8000F1EE600AB6EE001AF4EEC10AF1EE10FA88
:104B900004D2DFEDDF0AE048C0ED040ADE48D0EDC4
:104BA000040A90ED031A70EEC10A90ED001A60EE4F
:104BB000810A90ED011AD0ED041A41EE210A90ED20
:104BC000041AD0ED031AB0EE002A02EE611AD0EDFD
:104BD000051A31EE211AD0ED021A41EE810ACF48B2
:104BE000C0ED030ACC48D0ED040AC0ED030ACB485F
:104BF000D0ED030A9FEDCA1AF4EEC10AF1EE10FAE5
:104C000010DDC548D0ED040AF5EEC00AF1EE10FA49
:104C10002CD2D0ED060A90ED041A70EE810AC0ED98
:104C2000060A23E0BD48D0ED030A9FEDBD1AF4EE5D
:104C3000C10AF1EE10FA10D2B748D0ED040AF5EE31
:104C4000C00AF1EE10FA11DDD0ED060A90ED041A5B
:104C500070EE810AC0ED060A08E0AF48D0ED060A02
:104C600090ED041A70EE810AC0ED060AAB48D0ED53
:104C7000030AF5EEC00AF1EE10FA02DDD0ED030AE8
:104C800004E0A648D0ED030AF1EE600A9FEDA41AF5
:104C9000F4EEC10AF1EE10FA1FDDA048D0ED030AD0
:104CA000F5EEC00AF1EE10FA01DD01200BE09B48A1
:104CB000D0ED030AF5EEC00AF1EE10FA02D24FF081
:104CC000FF3000E0002000EB8010400000EE900A72
:104CD000F8EEE00A9148C0ED030A704700B52DEDEB
:104CE000048B85B08F480078012802D102F0FAFACF
:104CF00005E08C4890ED080A884880ED000A894854
:104D0000C078012801D102F0F8FB8648C07901285B
:104D100001D102F0DFFD02F0ADFE8248807B082861
:104D200011D1804890ED060AD0ED050A794890ED42
:104D3000001A00EE810AD0ED010A30EE600A7A48CE
:104D400080ED040A23E07748007B01280BD17748E7
:104D500090ED000A6F48D0ED000A30EE600A72480C
:104D600080ED040A13E06B4890ED010A6D4890ED68
:104D7000051AC0EE010A90ED060A30EE800A654879
:104D8000D0ED000A30EE600A674880ED040A6648FC
:104D900090ED040AB5EEC00AF1EE10FA02DD90EDD6
:104DA000040A04E0604890ED040AB1EE400AF3EE14
:104DB000040AB4EEE00AF1EE10FA17DD5A4890ED5D
:104DC000040AD0ED030A30EE600AD0ED000A20EEAE
:104DD000200AD0ED010A90ED041A00EE810AD0ED10
:104DE000070A30EE200A80ED070A26E04E4890EDD3
:104DF000040AD0ED030A30EE600AD0ED000A20EE7E
:104E0000200AD0ED010A90ED041A00EE810AD0EDDF
:104E1000040A90ED031AF0EE001A41EEC10A90ED7B
:104E2000051A70EE810A90ED021A01EE200AD0ED0B
:104E3000070A30EE200A80ED070A3B4890ED070A8A
:104E4000B5EEC00AF1EE10FA02DD90ED070A04E0BB
:104E5000354890ED070AB1EE400ADFED350AB4EEB1
:104E6000E00AF1EE10FA04D29FED290A2E4880EDF7
:104E7000070A2D4890ED030A80ED050A90ED040A1B
:104E800080ED030A2748807B07280BD1234890ED4B
:104E9000010A2548D0ED070A30EE200A1F4880EDB0
:104EA000010A0AE01D4890ED020A1F48D0ED070AEA
:104EB00030EE200A194880ED020A184890ED010AE8
:104EC000D0ED010A20EE200AD0ED020A90ED021A80
:104ED00000EE810A10EE101A08460AF062FB41EC5F
:104EE000190BB0EE490AF0EE690A0BF021FBB0EEA7
:104EF000408AF0EE608A51EC180B0AF065FB00EE78
:104F0000100A064880ED000A90ED000A054811E0FD
:104F10000000000048960020C8950020C0960020A0
:104F2000000002435C8C0020689500206096002001
:104F3000CDCCCC3DD0ED160AB4EEE00AF1EE10FA7D
:104F400020DD90ED160AFE48D0ED010A20EE200A81
:104F5000D0ED000A80EE201A80ED011AF94890ED9C
:104F6000160AF748D0ED020A20EE200AD0ED000A1A
:104F700080EE201A80ED021AF24890ED160AF048F1
:104F800080ED000AF048D0ED020AB0EE600AFFF7AB
:104F9000E2FDEB4890ED000A8DED010A90ED010A6B
:104FA0008DED020A90ED020A8DED030A90ED030AE1
:104FB0008DED040AE54890ED020AB0EE402ADDEDE1
:104FC000041A9DED031ADDED020A9DED010A01F0C0
:104FD000F5FC05B0BDEC048B00BD00B52DED0C8BD0
:104FE00085B01FED350AF0EE408A1FED370AB0EEAE
:104FF000409A1FED390AF0EE409A1FED3B0AB0EEE1
:10500000408A1FED3D0AB0EE40AACE480078012844
:1050100002D102F094FD05E0CA4890ED080AC848A4
:1050200080ED000AC748C078012801D102F030FEA7
:10503000C448C079012802D102F0B2FF05E0C1489E
:10504000407A012801D103F015F8C04890ED000A1C
:10505000BF48D0ED000A30EE600ABE4880ED000A7D
:10506000BA4890ED010ABA48D0ED010A30EE600A64
:10507000B84880ED010A90ED000AB748D0ED000A6B
:1050800020EE200AB348D0ED010AB34890ED011A92
:1050900000EE810AD0ED000A60EEA00A90ED011A40
:1050A000D0ED011A41EE210A80EE201AA548D0ED7C
:1050B0000C0AA74890ED020A01EE200A80ED020AD0
:1050C00090ED020AB5EEC00AF1EE10FA04D21FED1F
:1050D000700A80ED020A17E09D4890ED020A994897
:1050E000D0ED0C0AB7EE001A71EE600AB4EEE00AD9
:1050F000F1EE10FA08DD90ED0C0AF7EE000A30EE42
:10510000C00A934880ED020A914890ED020A8D484A
:10511000D0ED0C0A30EE200A904880ED020A8C494E
:105120008F4801F0EDFD8D498D4801F0E9FD87487C
:1051300090ED000A8648D0ED000A30EE600A8948FA
:1051400080ED000A814890ED010A8148D0ED010A06
:1051500030EE600A834880ED010A804890ED000A35
:105160007B48D0ED000A30EE600A7B4880ED000AF3
:105170007A4890ED010A7648D0ED010A30EE600AD7
:10518000754880ED010A90ED000A20EE000AD0ED8E
:10519000010A90ED011A00EE810A10EE101A08467D
:1051A0000AF0FFF941EC1C0BB0EE4C0AF0EE6C0A71
:1051B0000BF0BEF9B0EE40BAF0EE60BA51EC1B0B4A
:1051C0000AF002FA09EE900A634890ED000AC0EE78
:1051D000290AF0EE608A90ED010AC0EE290AB0EECD
:1051E000609A574890ED000A20EE280A80ED010AE7
:1051F00090ED000A20EE090A80ED020A594890ED70
:10520000010A20EE280AD0ED000A10EE890A56485D
:1052100080ED040A90ED040AB5EEC00AF1EE10FA32
:1052200002DD90ED040A04E04F4890ED040AB1EE6F
:10523000400AF6EE000AB4EEE00AF1EE10FA04D2EB
:105240001FEDCD0A484880ED040A474890ED040A56
:10525000B5EEC00AF1EE10FA02DD90ED040A04E0AA
:10526000414890ED040AB1EE400AF1EE000AB4EEB6
:10527000E00AF1EE10FA21DD3B4890ED040AD0ED92
:10528000030A30EE600AD0ED000A20EE200AD0EDCD
:10529000040A90ED031AF0EE001A41EEC10A90EDF7
:1052A000051A70EE810A90ED021A01EE200AD0ED87
:1052B000070A30EE200A80ED070A26E02A4890ED22
:1052C000040AD0ED030A30EE600AD0ED000A20EEA9
:1052D000200AD0ED010A90ED041A00EE810AD0ED0B
:1052E000040A90ED031AF0EE001A41EEC10A90EDA7
:1052F000051A70EE810A90ED021A01EE200AD0ED37
:10530000070A30EE200A80ED070A174890ED070AD9
:10531000B5EEC00AF1EE10FA02DD90ED070A04E0E6
:10532000114890ED070AB1EE400ADFED100AB4EE25
:10533000E00AF1EE10FA3ADD0B4890ED070A17E0AB
:10534000C09600205C8C00207896002048960020B3
:1053500080970020DC010020D401002090970020DD
:1053600040970020E401002068950020000096434B
:10537000B5EEC00AF1EE10FA01DD01200BE0F948AC
:1053800090ED070AB5EEC00AF1EE10FA02D24FF026
:10539000FF3000E0002000EE100AB8EEC00A5FED1A
:1053A0000D0A20EE200AEF4880ED070A1BE0ED48C9
:1053B00090ED070AB5EEC00AF1EE10FA02DD90EDAD
:1053C000070A04E0E74890ED070AB1EE400ADFED76
:1053D000E60AB4EEE00AF1EE10FA04D29FEDE30A19
:1053E000E04880ED070ADF4890ED030A80ED050AEA
:1053F00090ED040A80ED030ADD4890ED010AD948DA
:10540000D0ED070A00EEC90AD94880ED010A90EDF7
:10541000020AD448D0ED070A00EEA80AD44880ED6D
:10542000020AD449D44801F09CFCD24890ED030A0A
:10543000F7EE000A80EE801AB0EE41AA9FEDCF0A87
:10544000B4EEC0AAF1EE10FA03DD9FEDCC0AB0EE87
:1054500040AACB4890ED060A20EE0A0ADFEDC90A01
:1054600020EE200ADFEDC80A20EE200A10EE101A06
:1054700008460AF096F841EC1D0BB0EE4D0AF0EE2E
:105480006D0A0BF055F8B0EE40CAF0EE60CA9FED21
:10549000BF0B53EC102B51EC1C0B09F090FF41ECAF
:1054A0001B0B0AF091F808EE100AB14890ED010AC2
:1054B000D0ED010A20EE200AD0ED020A90ED021A8A
:1054C00000EE810A10EE101A08460AF06AF841EC64
:1054D0001C0BB0EE4C0AF0EE6C0A0BF029F8B0EEA3
:1054E00040BAF0EE60BA51EC1B0B0AF06DF800EE1A
:1054F000100A9F4880ED000A90ED000AA548D0ED03
:10550000160AB4EEE00AF1EE10FA20DD90ED160A6C
:105510009748D0ED010A20EE200AD0ED000A80EE77
:10552000201A80ED011A9B4890ED160A9048D0EDA4
:10553000020A20EE200AD0ED000A80EE201A80ED4B
:10554000021A944890ED160A894880ED000A8848AE
:1055500090ED000AB4EEC80AF1EE10FA15DDD0EDB8
:10556000000A88EE200AD0ED010A20EE200A80ED24
:10557000010A90ED000AC8EE000A90ED020A20EE42
:10558000800A80ED020A80ED008A8348D0ED020A8D
:10559000B0EE600AFFF7DFFA754890ED000A8DED76
:1055A000010A90ED010A8DED020A90ED020A8DEDDF
:1055B000030A90ED030A8DED040A784890ED020A83
:1055C000B0EE402ADDED041A9DED031ADDED020A6E
:1055D0009DED010A01F0F2F905B0BDEC0C8B00BDA8
:1055E00000B52DED040B2DED048B85B09DED090A62
:1055F0006A48D0ED000A30EE600A694880ED040A7E
:105600009DED0A0A6548D0ED010A30EE600A654852
:1056100080ED040A9DED0B0A6048D0ED020A30EEE1
:10562000600A614880ED040A5D4890ED040AF6EED8
:10563000000AB4EEE00AF1EE10FA01D2012000E017
:10564000002000280DDD564890ED040AF6EE000A11
:10565000B4EEE00AF1EE10FA01D201200FE00020D2
:105660000DE04F4890ED040AF6EE000AB4EEE00AB1
:10567000F1EE10FA01D2012000E00020404220B1FA
:105680009FED3A0A464880ED040A464890ED040A28
:10569000F6EE000AB4EEE00AF1EE10FA01D20120B3
:1056A00000E0002000280DDD3E4890ED040AF6EEF3
:1056B000000AB4EEE00AF1EE10FA01D201200FE088
:1056C00000200DE0374890ED040AF6EE000AB4EE33
:1056D000E00AF1EE10FA01D2012000E00020404281
:1056E00020B19FED220A2F4880ED040A2E4890ED4C
:1056F000040AF6EE000AB4EEE00AF1EE10FA01D266
:10570000012000E0002000280DDD274890ED040A6C
:10571000F6EE000AB4EEE00AF1EE10FA01D2012032
:105720000FE000200DE0204890ED040AF6EE000A9C
:10573000B4EEE00AF1EE10FA01D2012000E0002000
:10574000404220B19FED090A174880ED040A144831
:1057500090ED040AB5EEC00AF1EE10FA26DD90EDE8
:10576000040A28E068950020CDCCCC3D0000000064
:10577000C0960020809700204097002000007A43C8
:105780004C8D002096B21C410AD7233C000000003B
:10579000000059405C8C002078960020489600203C
:1057A00088950020A8950020C8950020FE4890ED1F
:1057B000040AB1EE400AF1EE040AB4EEE00AF1EE9A
:1057C00010FA35D8F94890ED000AF74880ED000A44
:1057D000F64890ED010AF44880ED010AF34890ED97
:1057E000020AF14880ED020A90ED040AD0ED030AA6
:1057F00030EE600AD0ED000A20EE200AD0ED010A5A
:1058000090ED041A00EE810AD0ED040A90ED031A1F
:10581000F0EE001A41EEC10A90ED051A70EE810A11
:1058200090ED021A01EE200AE14880ED010A81E0C4
:10583000DD4890ED040AB5EEC00AF1EE10FA02DD83
:1058400090ED040A04E0D84890ED040AB1EE400A55
:10585000F3EE040AB4EEE00AF1EE10FA35D8D548BA
:1058600090ED000AD04880ED000AD24890ED010A80
:10587000CD4880ED010ACF4890ED020ACA4880ED7C
:10588000020A90ED040AD0ED030A30EE600AD0ED72
:10589000000A20EE200AD0ED010A90ED041A00EE75
:1058A000810AD0ED040A90ED031AF0EE001A41EEE1
:1058B000C10A90ED051A70EE810A90ED021A01EE10
:1058C000200ABB4880ED010A34E0BB4890ED000A95
:1058D000B54880ED000AB84890ED010AB24880ED65
:1058E000010AB54890ED020AAF4880ED020A90ED3A
:1058F000040AD0ED030A30EE600AD0ED000A20EE73
:10590000200AD0ED010A90ED041A00EE810AD0EDD4
:10591000040A90ED031AF0EE001A41EEC10A90ED70
:10592000051A70EE810A90ED021A01EE200AA048D5
:1059300080ED010AA14890ED040AB5EEC00AF1EE2F
:1059400010FA02DD90ED040A04E09C4890ED040A90
:10595000B1EE400AF1EE040AB4EEE00AF1EE10FAFC
:1059600035D8974890ED000A944880ED000A944895
:1059700090ED010A914880ED010A914890ED020AEC
:105980008E4880ED020A90ED040AD0ED030A30EE55
:10599000600AD0ED000A20EE200AD0ED010A90ED59
:1059A000041A00EE810AD0ED040A90ED031AF0EE1D
:1059B000001A41EEC10A90ED051A70EE810A90EDD1
:1059C000021A01EE200A7A4880ED010A81E07B4844
:1059D00090ED040AB5EEC00AF1EE10FA02DD90ED8A
:1059E000040A04E0754890ED040AB1EE400AF3EEB3
:1059F000040AB4EEE00AF1EE10FA35D8714890EDE1
:105A0000000A6E4880ED000A6E4890ED010A6B486E
:105A100080ED010A6B4890ED020A684880ED020AA9
:105A200090ED040AD0ED030A30EE600AD0ED000AD2
:105A300020EE200AD0ED010A90ED041A00EE810A52
:105A4000D0ED040A90ED031AF0EE001A41EEC10AFF
:105A500090ED051A70EE810A90ED021A01EE200A0F
:105A6000534880ED010A34E0574890ED000A53484E
:105A700080ED000A544890ED010A504880ED010A7B
:105A8000514890ED020A4D4880ED020A90ED040A5B
:105A9000D0ED030A30EE600AD0ED000A20EE200AB5
:105AA000D0ED010A90ED041A00EE810AD0ED040A4F
:105AB00090ED031AF0EE001A41EEC10A90ED051ABE
:105AC00070EE810A90ED021A01EE200A384880ED4E
:105AD000010A3E4890ED040AD0ED030A30EE600A58
