:020000040800F2
:1000000080900020057F0008395200083B5200080C
:100010004D520008515200085552000800000000DF
:10002000000000000000000000000000595200081D
:100030005B520008000000006FA10008D3A3000875
:100040001F7F00081F7F00081F7F00081F7F000818
:100050001F7F00081F7F00081F7F00081F7F000808
:100060001F7F00081F7F00081F7F00081F7F0008F8
:100070001F7F00081F7F0008DD1900084F1D0008C2
:100080001F7F00080B1600081F7F00081F7F000855
:10009000870200081F7F00081F7F00081F7F0008DD
:1000A0001F7F00081F7F00081F7F00081F7F0008B8
:1000B0001F7F00084B1200081F7F00081F7F0008E9
:1000C0001F7F00081F7F00081F7F00081F7F000898
:1000D0001F7F00081914000831160008FD190008D8
:1000E0001F7F00081F7F00081F7F00081F7F000878
:1000F0001F7F00081F7F00081F7F0008B91F00082E
:100100001F7F00081F7F00081F7F00081F7F000857
:100110008F1C0008EF1E00081F7F00081F7F0008CB
:100120001F7F00081F7F00081F7F00081F7F000837
:100130001F7F00081F7F00081F7F00081F7F000827
:10014000C70900081F7F00081F7F00081F7F0008E5
:100150001F7F00081F7F0008F31300081F7F00089F
:100160001F7F00081F7F00081F7F00081F7F0008F7
:100170001F7F00081F7F00081F7F00081F7F0008E7
:100180001F7F00081F7F0008DFF80CD00AF066FD13
:1001900000480047850F00088090002000B58BB014
:1001A0000121480606F03BFC0121084606F004FC4C
:1001B00009220B21FE4806F044FA09220C21FC48D2
:1001C00006F03FFA02208DF818004FF4C050059059
:1001D00005A9F74806F0AAF914208DF82800012097
:1001E0008DF829008DF82A008DF82B000AA805F05B
:1001F000F8F9F04805F060FA07A805F081FB002047
:100200008DF822008DF823008DF824008DF825004C
:100210008DF826008DF827008DF81E008DF81F0040
:1002200008208DF8200003208DF82100ADF81C0077
:1002300007A9E04805F059FA00208DF80E008DF866
:100240000F0001208DF810001020ADF8040040F6DA
:100250000800ADF806004FF68770ADF808004FF6BD
:10026000F870ADF80A000020ADF80C0001208DF800
:10027000110001A805F0C3FA01220221CD4805F0C2
:10028000BDFD0BB000BD10B52DED0C8B86B002216D
:10029000C84805F0B6FE0221C64805F0F4FD02216B
:1002A000C44805F013FE00287ED001AA0021C148F1
:1002B00005F089FCC04902980844002874D19DF8D3
:1002C0000F004128FAD19DF81000502802D0532881
:1002D00004D13EE09DF80E00082800D09BE10120EB
:1002E000B64948709DF811109DF8120041EA0020AF
:1002F00000B200EE100AB8EEC00ADFEDB10A20EE3F
:10030000200AB04880ED000A9DF813109DF81400F3
:1003100041EA002000B200EE100AB8EEC00ADFED9C
:10032000A80A20EE200AA74880ED010A9DF81510C2
:100330009DF8160041EA002000B200EE100AB8EE67
:10034000C00ADFED9F0A20EE200A9E4880ED020AD7
:1003500061E19DF80E00082800D05CE19DF81120B5
:100360009DF8121042EA012108B20AF03BFA41EC72
:10037000190B9FED950B53EC102B0AF052F941EC41
:10038000180B0AF072FA00EE100A914880ED010A8B
:100390009DF813209DF8141042EA012108B20AF0DA
:1003A00021FA41EC190B00E036E19FED870B53EC8D
:1003B000102B0AF036F941EC180B0AF056FA00EE51
:1003C000100A834880ED020A9DF815209DF816104A
:1003D00042EA012108B20AF005FA41EC190B9FED3F
:1003E0007A0B53EC102B0AF01CF941EC180B0AF0B5
:1003F0003CFA00EE100A774880ED030A7148D0ED10
:10040000020A9FED751A80EE810ADFED740A20EE74
:10041000200A10EE104A20460AF014FA41EC1D0B97
:10042000B0EE4D0AF0EE6D0A0AF006FFB0EE40BAEB
:10043000F0EE60BA664890ED020A10EE101A084617
:100440000AF000FA41EC1C0B53EC1B2B0AF0E9F804
:1004500041EC190B5B4890ED020ADFED5F0A80EE7C
:10046000201A9FED5E0A21EE000A10EE104A204687
:100470000AF0E8F941EC1D0BB0EE4D0AF0EE6D0A02
:100480000AF076FEB0EE40BAF0EE60BA504890ED59
:10049000010A10EE101A08460AF0D4F941EC1C0BC0
:1004A00053EC1B2B0AF0BDF841EC1A0B53EC192B43
:1004B0000AF010F841EC180B0AF0D7F900EE100A18
:1004C000444880ED010A3F48D0ED020A9FED421AF0
:1004D00080EE810ADFED410A20EE200A10EE104A7C
:1004E00020460AF0AFF941EC1D0BB0EE4D0AF0EEDC
:1004F0006D0A0AF03DFEB0EE40BAF0EE60BA344844
:1005000090ED020A10EE101A08460AF09BF941EC31
:100510001C0B53EC1B2B0AF084F841EC190B2948F7
:10052000D0ED020A9FED2C1A80EE810ADFED2B0A36
:1005300020EE200A10EE104A20460AF083F941EC22
:100540001D0BB0EE4D0AF0EE6D0A0AF075FEB0EE2E
:1005500040BAF0EE60BA1E4890ED010AB1EE400AD2
:1005600010EE101A08460AF06DF941EC1C0B53EC22
:100570001B2B0AF056F841EC1A0B53EC192B09F01F
:10058000A9FF41EC180B0AF070F900EE100A1148AF
:1005900080ED020A90ED010AD0ED010A20EE200A5A
:1005A000D0ED020A90ED021A00EE810A18E0000078
:1005B0000000024000640040FFFEFDFF14620020C6
:1005C000CDCCCC3DD86F00209A9999999999B93F93
:1005D000607000202070002000003443DB0F494091
:1005E00010EE101A08460AF02DF941EC190BB0EE86
:1005F000490AF0EE690A0AF083FEB0EE408AF0EE96
:10060000608A51EC180B0AF030F900EE100A3948F4
:1006100080ED000A00BF00BF06B0BDEC0C8B10BD22
:1006200035498988491C344A127891FBF2F302FB60
:100630001311314A5288914206D13049898841F0DC
:1006400001012E4A918070474FF481322A498B88EC
:10065000083101EB03110A60082227498B88083111
:1006600001EB03110A71012223498B88083101EB48
:1006700003114A71522220498B88083101EB031182
:100680008A7100221C498B88083101EB0311CA7161
:1006900019498B88083101EB03110A7216498B88BE
:1006A000083101EB03114A7213498B88083101EBC1
:1006B00003118A7210498B88083101EB0311CA7249
:1006C0000D498B88083101EB03110A730A498A88A6
:1006D000083101EB0211487307498988491C064A11
:1006E000127891FBF2F302FB1311034A918000BFD1
:1006F000A9E700002070002004630020B062002001
:1007000000B58BB00121880606F089F9012102208D
:1007100006F052F909220521F94805F092FF092255
:100720000621F74805F08DFF02208DF818006020A3
:10073000059005A9F24805F0F9FE40208DF8280043
:1007400002208DF8290001208DF82A008DF82B0059
:100750000AA804F046FFEB4804F0AEFF07A805F036
:10076000CFF800208DF822008DF823008DF82400AA
:100770008DF825008DF826008DF827008DF81E00D5
:100780008DF81F0008208DF8200003208DF821002F
:10079000ADF81C0007A9DB4804F0A7FF10208DF876
:1007A0000E0001208DF80F0000208DF8100045F29A
:1007B0002000ADF8040045F24000ADF8060045F217
:1007C0006000ADF808004FF4A140ADF80A00002029
:1007D000ADF80C0001208DF8110001A805F00FF80C
:1007E00011208DF80E0001208DF80F0000208DF8EB
:1007F000100045F2A000ADF8040045F2C000ADF8CD
:10080000060045F2E000ADF808004FF4A240ADF854
:100810000A000020ADF80C0001208DF8110001A89D
:1008200004F0EDFF0F208DF80E0001208DF80F0071
:1008300000208DF8100043F22000ADF804004FF4C2
:100840004150ADF8060043F26000ADF808004FF4E7
:100850004250ADF80A000020ADF80C0001208DF8E0
:10086000110001A804F0CBFF0E208DF80E0001202E
:100870008DF80F0000208DF810004FF48150ADF876
:1008800004004FF48250ADF806004FF48350ADF8E9
:1008900008004FF48450ADF80A000020ADF80C00B9
:1008A00001208DF8110001A804F0A9FF0122022106
:1008B000944805F0A3FA0BB000BD70B52DED028B86
:1008C00004460D46904800EB8400405D002877DD2B
:1008D0008D4800EB8400405D012804D0022822D01E
:1008E00003286CD13FE0894800EB041000EB850041
:1008F00090ED000A864800EB041000EB8500D0ED77
:10090000000AB4EEE00AF1EE10FA0BDD05EB84020A
:100910000120904081B27F48012203687E48006830
:1009200008F086FA4BE0794800EB041000EB8500F4
:1009300090ED000A764800EB041000EB8500D0ED46
:10094000000AB4EEE00AF1EE10FA0BD205EB8402D5
:100950000120904081B26F48012203686E48006810
:1009600008F066FA2BE0694800EB041000EB850004
:1009700090ED000A664800EB041000EB8500D0ED16
:10098000000A30EE600A10EE101A084609F05AFF0D
:1009900041EC180BB0EE480AF0EE680A09F062FD6F
:1009A0000A280BDA05EB84020120904081B25948F5
:1009B000012203685848006808F03AFA00BF00BFF7
:1009C000BDEC028B70BD30B585B002214D4805F0FD
:1009D00018FB02214B4805F056FA0221494805F060
:1009E00075FA00287ED06A460021464805F0EBF8EB
:1009F000009800F00F0440F281220099881A914279
:100A00001FD016DC40F28112A1EB020091426AD0A5
:100A100008DC812968D0822967D0832966D084299F
:100A20007CD1DBE001287AD0022879D00328F7D1E5
:100A3000D8E0082872D2DFE800F0EC050607CACB40
:100A4000CCCD00BF00BF00BF9DF80B00492829D0C6
:100A5000502802D0562850D111E09DF80C0058289B
:100A60000CD1611E2A4A02EB81000DF10F0100F04A
:100A700083FB601EC1B20020FFF71FFF3DE09DF821
:100A80000C0058280DD1611E214A103202EB810062
:100A90000DF10F0100F070FB601EC1B20120FFF7E5
:100AA0000CFF2AE09DF80C0051280DD1611E184A58
:100AB000203202EB81000DF10F0100F05DFB601EA2
:100AC000C1B20220FFF7F9FE9DF80C00442813D1B3
:100AD000611E0F4A303202EB81000DF10F0100F070
:100AE0004BFB04E096E07AE075E075E075E0601E8F
:100AF000C1B20320FFF7E1FE00BF00BF002562E0A6
:100B000000040240006800407462002080620020FF
:100B100044620020200000202400002079E05FE0F3
:100B20005FE03D48405D9DF80B10884249D13A484E
:100B30000A30415D9DF80C00814242D1374840683F
:100B4000401C364948600020087308460069401E72
:100B5000086133484188083000EB0110407B0128D0
:100B60002ED12F4880882E494988884228D02C4889
:100B70004188083000EB0110007800F00F00A0421F
:100B80001ED127484188083000EB011040799DF8BC
:100B90000B10884214D122484188083000EB011024
:100BA00081799DF80C0081420AD11D484088401C83
:100BB0001B49097890FBF1F201FB120018494880AB
:100BC00003E0681CC5B20A2DABDB00BF21E000BF0B
:100BD00000BF00BF1DE000BF00BF00BF00BF00BFDF
:100BE00000BF00BF01200F4948724FF080510098AC
:100BF00041EA00409DF80B1040EA01209DF80C10DE
:100C000008430849C8600846808840F02000888072
:100C100000BF00BF05B030BD0A000020A46900205D
:100C20002C660020B062002000BFFE48C07920B1D1
:100C300001280ED002281ED114E0FB48406980F044
:100C40001000F94948610846406980F04000486159
:100C500011E0F548406980F01000F34948614020F8
:100C6000088308E01020F04908830846406980F0B6
:100C70004000486100BF00BFEA48007A012805D162
:100C8000E948406980F02000E7494861E5488088EC
:100C9000002803DD1020E44948830DE0E148408846
:100CA000002803DD2020E049488305E0DD48408836
:100CB00010B92020DC49088340F6C41009F060F91F
:100CC000B3E700BFD748406A012807D1D74800687A
:100CD000401ED649086001F0AFF904E0D34800682F
:100CE000401CD2490860D048406980F08000CE495D
:100CF0004861CE48006809F043F9E3E700BFC948FE
:100D00004078022822D0C748407801280AD1C8205C
:100D100009F036F94FF48070C3494883C82009F0C0
:100D20002FF913E0C248006800280FDDC0480468AE
:100D30000020BF49086007E0322009F021F94FF494
:100D40008070B9494883641E002CF5DC052009F049
:100D500017F9D4E700BFB3488088002803DD0220DC
:100D6000B04948700AE0AF484088002803DD012000
:100D7000AC49487002E00020AA494870052009F0FB
:100D8000FFF8E8E700BFAB48007E012823D1A9485F
:100D9000D0ED041AB0EE612AD0ED021AB0EE611A5D
:100DA000D0ED011AF0EE610AD0ED001AB0EE610A42
:100DB0000020DFEDA14AB3EE044ADFEDA03A9FED3B
:100DC0009F3ADFED9F2ADFED9E1A02F0F3FD00202F
:100DD0009849087600E000BF00BF612009F0D0F814
:100DE000D1E700BF09F00BFB00F0FCF99548016862
:100DF000002007F077FD9449086000F075F90A2398
:100E0000924A0021924808F075FD0F23914A002173
:100E1000914808F06FFD1423904A0021904808F093
:100E200069FD19238F4A00218F4808F063FD1E23B6
:100E30008E4A00218E4808F05DFD052004F0D0F9AF
:100E400000BF42F2107009F09BF876480078012844
:100E5000F7D100BF00BF00BF7648407E05287DD295
:100E6000DFE800F003062545660002F05FFD84E040
:100E7000704890ED040A7F4880ED010A9FED700AEA
:100E800080ED020AD0ED031A90ED021AD0ED010AAE
:100E900090ED000A03F000F86649C86909F070F89F
:100EA00000206449487602205E49887165E09FED24
:100EB000640A704880ED010A5E4890ED040A6D48AE
:100EC00080ED020AD0ED031A90ED021AD0ED010A6E
:100ED00090ED000A02F0E0FF5649C86909F050F8A9
:100EE00000205449487602204E49887145E0514817
:100EF00090ED040AB1EE400A5E4880ED010A9FEDD4
:100F0000500A80ED020AD0ED031A90ED021AD0EDDE
:100F1000010A90ED000A02F0BFFF4649C86909F0D6
:100F20002FF800204349487602203E49887124E08A
:100F30009FED430A4F4880ED010A3E4890ED040AB8
:100F4000B1EE400A4B4880ED020AD0ED031A90ED55
:100F5000021AD0ED010A90ED000A00E00CE002F068
:100F60009BFF3449C86909F00BF8002031494876E5
:100F700002202C49887100E000BF00BF612008F00A
:100F8000FFFF69E710B506F023FF4FF4806101F021
:100F90000702394B18684FF6FF031840374B0343DD
:100FA00043EA0220344B186000BF04F0D5F804F087
:100FB00055F904F0F5F804F06DF9FFF7EFF8FFF7D5
:100FC0009FFB03F07FFD00F075F900F083FA00F05D
:100FD00067FC00F0A9FD00F0DFFE0021284801F0C9
:100FE000A1FE0121274801F09DFE07F0D5F8052359
:100FF000254A0021254808F07DFC07F0F4F900207F
:1010000010BD30B52DED028B81B00446B0EE408AA4
:101010000D461F48006800EB840080ED008A1D48E3
:10102000006839E0B0620020000002401400002097
:1010300030000020E462002000008C4200004842A2
:101040000000000020000020240000207421002067
:10105000850D000874310020550D000874410020F2
:10106000FD0C000874510020C30C000874610020BE
:10107000290C0008786100200CED00E00000FA0562
:1010800054690020A469002074110020E30D0008B9
:101090002C00002028000020055501200F4908756C
:1010A0000F48006800900120A04081B200238222F6
:1010B0000C48006807F07CFD0848007A012802D13E
:1010C00000200649087501B0BDEC028B30BD10B59B
:1010D0004FF47A7008F054FF10BD0000B062002099
:1010E00020000020240000204FF480503249086086
:1010F000B7EE000A084680ED010A9FED300A30483D
:1011000080ED030A084690ED010ADFED2E0A20EE7D
:10111000200A2B48D0ED030A9FED2B1A60EE810ABE
:1011200080EE201A80ED051A9FED280A80ED060A50
:101130009FED270A80ED070A9FED260A264880EDDD
:10114000160A002025494870022088700020244992
:101150000870487048808880022088710020C8711B
:101160000872087548754872C860012008624862B4
:101170008862C86208637047024692ED000ABDEEBD
:10118000C00A10EE100A0870030A4B70030C8B7033
:10119000030ECB7070470A784B7842EA03228B78B3
:1011A00042EA0342CB7842EA036200EE102AF8EEEC
:1011B000C00AC0ED000A7047180000209A997141DA
:1011C0002462002000007042DB0F49403333333F7C
:1011D0009A99193F0000C8428861002014620020DB
:1011E000B06200201FB50121022005F018FC1D206F
:1011F0008DF8000000208DF8010001208DF802001C
:101200008DF80300684604F0ECF95320ADF80400B3
:10121000C72002900020ADF80C00ADF8060001A92F
:101220001F4805F0B4FD01211D4805F01BFE0121FA
:101230001B4806F061FA01221146194806F048FAE7
:101240000121174805F02CFE1FBD10B501211448DF
:1012500006F055FA10B30121114806F04DFA114875
:1012600090ED010ADFED100A30EE200A80ED010A50
:1012700003F00BFD0D4880880C494988884203D053
:101280000A49002003F02FFC094880880849498852
:10129000884203D00649012003F025FC10BD000060
:1012A00000040040E861002017B7513904630020B2
:1012B0002C66002000B597B00121084605F07CFBA4
:1012C0000121102005F0BCFB0121880505F074FB0D
:1012D00007220921774805F0B4F907220A21754849
:1012E00005F0AFF94FF4C060119002208DF848006E
:1012F00000208DF84A0003208DF8490000208DF869
:101300004B0011A96B4805F011F94FF4E13013902F
:101310000020ADF85000ADF85200ADF85400ADF823
:1013200058000C20ADF8560013A9634806F022FBC4
:10133000624804F0B9FE4FF0006001900020059073
:10134000402004905E4803905B48001D0290001509
:10135000079000200690099008900A904FF44030C2
:101360000B9000200C9001200D9000200F900E900B
:1013700001A9524804F03AFF5249504804F0E9FFED
:1013800050494E4805F040F8012210214B4804F026
:10139000F4FF46208DF8400005208DF84100012023
:1013A0008DF842008DF8430010A804F01AF90122CC
:1013B0008021414806F013FC01213F4806F062FB02
:1013C00017B000BD70B504460D463F48006A78B9B5
:1013D0002A4621463A4809F049F82946374804F098
:1013E00060FF0121354804F03BFF012036490862C7
:1013F00070BD10B53349314804F0DCFF01280AD133
:1014000030492E4804F0A5FF2E492C4804F0FCFF7B
:1014100000202D49086210BD10B540F22551264824
:1014200006F021FC002844D040F22551224806F065
:1014300011FC40F22551204806F04CFC1E4806F0F5
:1014400050FBC4B22148007800F0400008B31F48A8
:10145000007800F0800020BB0D2C06D11B480078DE
:1014600040F08000194908701BE01848007800F02F
:101470003F0017490C5415480078401C1349087068
:101480000846007800F03F0020280ADD00200870A0
:1014900007E0232C05D10D48007840F040000B49AF
:1014A00008700A48007800F0800010B10020074959
:1014B000087010BD0000024000100140B8640240F6
:1014C0004F6D002000800028B06200204000002006
:1014D000826D002000B597B00121084605F06CFA36
:1014E0000121480405F09BFA0121480505F064FA42
:1014F00007220221E04805F0A4F807220321DE4874
:1015000005F09FF80C20119002208DF84800002073
:101510008DF84A0003208DF8490000208DF84B001B
:1015200011A9D54805F002F84FF4E13013900020DE
:10153000ADF85000ADF85200ADF85400ADF85800C9
:101540000C20ADF8560013A9CC4806F013FA01227E
:1015500040F22551C94806F04BFB26208DF840008B
:1015600004208DF8410001208DF842008DF84300E1
:1015700010A804F036F8C24804F096FD4FF0006061
:1015800001900020059040200490BE480390BB4885
:10159000001D029000150790002006900990089009
:1015A0000A904FF440300B9000200C9001200D90D9
:1015B00000200F900E9001A9B14804F017FEB24927
:1015C000AF4804F0C6FEB049AD4804F01DFF01224B
:1015D0001021AB4804F0D1FE11208DF84000072007
:1015E0008DF8410001208DF842008DF8430010A8CD
:1015F00003F0F7FF01228021A04806F0F0FA012154
:101600009E4806F03FFA17B000BD10B59E499C48B1
:1016100004F0D0FE01280AD19B49994804F099FEB4
:101620009949974804F0F0FE01209849486210BD9E
:1016300010B52DED028B002440F225518F4806F0A5
:1016400012FB002871D040F225518C4806F002FBB5
:1016500040F22551894806F03DFB884806F041FAE2
:10166000C4B28B48007800F0400008B38848007886
:1016700000F0800020BBFF2C06D18548007840F0A8
:101680008000834908701BE08148007800F03F002B
:1016900080490C547E480078401C7D4908700846FB
:1016A000007800F03F0028280ADD0020087007E0DD
:1016B000EE2C05D17648007840F04000744908705F
:1016C0007348007800F080000028BBD07148007893
:1016D000122819D16F4840780C2813D2DFE800F0A7
:1016E000060708090A0B0C0D0E0F10110BE00AE09B
:1016F00009E008E007E006E005E004E003E002E0BE
:1017000001E000E000BFACE06248C07810B1012801
:1017100078D10BE05F4840790B2803D101205B4969
:10172000087000E000BF00BF9AE0A1E0594840798E
:10173000C01F12280DD2DFE800F0293847905690DC
:1017400090900D1721257B82897566090020FEF790
:1017500067FF82E000204D4988719FED4F0A00210C
:10176000084603F0DEFB78E0012048498871B7EEB7
:10177000000A0021084603F0D4FB6EE0012047492F
:1017800008766AE002204149887166E04148C01D40
:1017900009F0D2FCB0EE408AF0EE608A51EC180BF2
:1017A00009F063F83D49086057E03A48C01D09F068
:1017B000C3FCB0EE408AF0EE608A51EC180B09F0E1
:1017C00054F83649486048E03248C01D09F0B4FC7E
:1017D000B0EE408AF0EE608A51EC180B09F045F843
:1017E0002E49886039E02B48C01D09F0A5FCB0EEF9
:1017F000408AF0EE608A51EC180B09F036F8274960
:1018000008612AE02BE02348C01D09F095FCB0EEEA
:10181000408AF0EE608A51EC180B08F0F4FF1F4983
:10182000C8611AE00120194988711C49487614E002
:101830000120164988710220184948760DE00120E0
:101840001249887103201549487606E001200F49A6
:10185000887104201149487600BF00BF00E000BF36
:1018600000BF00200A4908703C210A4808F017FE12
:10187000BDEC028B10BD000000000240004400409F
:10188000A0600240976A002000802020B062002003
:1018900041000020A26D002000000000E462002052
:1018A00000B597B00121042005F086F801218804D5
:1018B00005F0B5F80121480505F07EF807220A2158
:1018C000924804F0BEFE07220B21904804F0B9FEB6
:1018D0004FF44060119002208DF8480000208DF8F0
:1018E0004A0003208DF8490000208DF84B0011A913
:1018F000864804F01BFE4FF4E13013900020ADF851
:101900005000ADF85200ADF85400ADF858000C206E
:10191000ADF8560013A97E4806F02CF8012240F2DB
:1019200025517B4806F064F927208DF840000420FB
:101930008DF8410002208DF8420001208DF843000F
:1019400010A803F04EFE734804F0AEFB4FF00060A9
:10195000019000200590402004906F4803906C484F
:10196000001D029000150790002006900990089035
:101970000A904FF440300B9000200C9001200D9005
:1019800000200F900E9001A9624804F02FFC6349DB
:10199000604804F0DEFC61495E4804F035FD012238
:1019A00010215C4804F0E9FC0E208DF8400007206F
:1019B0008DF8410002208DF8420001208DF843008F
:1019C00010A803F00EFE01228021514806F007F90D
:1019D00001214F4806F056F817B000BD10B54F4929
:1019E0004C4804F0E7FC012807D14C49494804F071
:1019F000B0FC4A49474804F007FD10BD10B500246B
:101A000040F22551424806F02EF900287DD040F2E0
:101A100025513F4806F01EF940F225513C4806F09A
:101A200059F93B4806F05DF8C4B23D48007800F033
:101A3000400008B33A48007800F0800020BBFF2C3B
:101A400006D13748007840F08000354908701BE027
:101A50003348007800F03F0032490C543048007899
:101A6000401C2F4908700846007800F03F002828E5
:101A70000ADD0020087007E0EE2C05D12848007828
:101A800040F04000264908702548007800F08000AA
:101A900070B324480078122819D1224840780C28C5
:101AA00013D2DFE800F0060708090A0B0C0D0E0F31
:101AB00010110BE00AE009E008E007E006E005E0AD
:101AC00004E003E002E001E000E000BF16E015489A
:101AD000C07830B1012807D0032806D004280BD1E4
:101AE00007E000BF00BF08E000BF00BF00BF04E088
:101AF0000BE000BF00BF00E000BF00BF00200849AE
:101B000008703C21074808F0CAFC10BD00080240DC
:101B10000048004058600240976A0020008000188A
:101B200042000020DE6D002000B597B0012108467C
:101B300004F042FF0121C80404F071FF01214805AF
:101B400004F03AFF082200218A4804F07AFD0822B6
:101B50000121884804F075FD0320119002208DF8C2
:101B6000480000208DF84A0003208DF8490000202D
:101B70008DF84B0011A97F4804F0D8FC4FF4E130F8
:101B800013900020ADF85000ADF85200ADF85400AD
:101B9000ADF858000C20ADF8560013A9764805F0B2
:101BA000E9FE012240F22551734806F021F8342065
:101BB0008DF8400001208DF8410002208DF8420090
:101BC00001208DF8430010A803F00BFD6B4804F0D2
:101BD0006BFA4FF0006001900020059040200490C7
:101BE000674803906448001D02900015079000208C
:101BF0000690099008900A904FF440300B90002016
:101C00000C9001200D9000200F900E9001A95B48D0
:101C100004F0ECFA5B49594804F09BFB59495748DA
:101C200004F0F2FB01221021544804F0A6FB0F201F
:101C30008DF8400007208DF8410001208DF842000A
:101C40008DF8430010A803F0CCFC012280214A4803
:101C500005F0C5FF0121484805F014FF17B000BD8D
:101C600070B504460D464848C06A78B92A462146F0
:101C7000434808F0FBFB2946404804F012FB0121D1
:101C80003E4804F0EDFA01203F49C86270BD10B52E
:101C900040F22531384805F0E6FF60B1364805F0DE
:101CA00020FF3A490870002039490870202139483E
:101CB00008F0F5FB4AE040F225512F4805F0D3FF2C
:101CC000002843D020212C4805F0C4FF40F22551C4
:101CD000294805F0FFFF284805F003FF2B4908704D
:101CE0002B48007800F0400028B32948007800F025
:101CF0008000F8B9084600780A2806D12448007800
:101D000040F08000224908701FE0204800782049F8
:101D1000097801F03F011F4A50541D480078401CCB
:101D20001B4908700846007800F03F0020280CDDB1
:101D30000020087009E015480078232805D11448D0
:101D4000007840F040001249087000BF10BD10B587
:101D50000C490A4804F02EFB01280AD1094907481A
:101D600004F0F7FA0749054804F04EFB0020064945
:101D7000C86210BD00000240004C0040706002408C
:101D80001C6E002020800020B06200204C0000204B
:101D9000440000204F6E002000B597B001210C20B8
:101DA00004F00AFE0121080504F039FE08220C2186
:101DB000974804F046FC08220221964804F041FCB2
:101DC0004FF48050119002208DF8480000208DF8CB
:101DD0004A0003208DF8490000208DF84B0011A91E
:101DE0008B4804F0A3FB0420119002208DF84800DA
:101DF00000208DF84A0003208DF8490000208DF85E
:101E00004B0011A9834804F091FB4FF4E13013908B
:101E10000020ADF85000ADF85200ADF85400ADF818
:101E200058000C20ADF8560013A97B4805F0A2FD20
:101E3000012240F22551784805F0DAFE35208DF870
:101E4000400007208DF8410000208DF8420001205D
:101E50008DF8430010A803F0C4FB704804F024F987
:101E60004FF00060019000200590402004906C48E5
:101E700003906948001D029000150790002006900D
:101E8000099008900A904FF440300B9000200C907D
:101E900001200D9000200F900E9001A95F4804F0E2
:101EA000A5F960495D4804F054FA5E495B4804F0C6
:101EB000ABFA01221021594804F05FFA2F208DF867
:101EC000400006208DF8410001208DF842008DF879
:101ED000430010A803F085FB012280214E4805F045
:101EE0007EFE01214C4805F0CDFD17B000BD10B5B8
:101EF00040F22531484805F0B6FE58B1464805F095
:101F0000F0FDC4B20020484908702021474808F07D
:101F1000C6FA50E040F225513F4805F0A4FE0028E3
:101F200049D020213C4805F095FE40F225513A4821
:101F300005F0D0FE384805F0D4FDC4B23A48007828
:101F400000F0400008B33848007800F0800020BB63
:101F50000A2C06D13448007840F0800032490870DD
:101F60001BE03148007800F03F0030490C542E4807
:101F70000078401C2C4908700846007800F03F00AB
:101F800020280ADD0020087007E0232C05D1264810
:101F9000007840F04000244908702348007800F0A1
:101FA000800040B100202049087021480088401C72
:101FB00000B21F49088010BD10B51A49174804F037
:101FC000F9F901280AD11749144804F0C2F9154952
:101FD000124804F019FA00201649086310BD70B5C4
:101FE00004460D461348006B78B92A4621460C4832
:101FF00008F03CFA2946094804F053F90121074842
:1020000004F02EF901200B49086370BD70470000F1
:1020100000080240000C024000500040B86002403E
:10202000C06E0020008000284E000020F36E0020CB
:1020300050000020B062002010B52DED028B00246E
:102040000020FE494862EE222146641CFC484254AE
:10205000B1222146641C425412222146641C42547F
:1020600000222146641C42542146641C42542146ED
:10207000641C425401222146641C42540022204622
:10208000611CCCB2EE490A54EE480078042805DA07
:10209000EC480078401CEB49087002E00120E94957
:1020A0000870E648407820B101284ED0022872D14D
:1020B00025E0E4480078012806D002280AD0032849
:1020C0000ED0042818D111E0DFA2E1A1E14809F007
:1020D00007F812E0E0A2DEA1DE4809F001F80CE00A
:1020E000DFA2DBA1DB4808F0FBFF06E0DFA2D8A1FE
:1020F000D84808F0F5FF00E000BF00BF4BE0D14832
:102100000078012806D002280AD003280ED004281F
:1021100018D111E0D8A2CEA1CE4808F0E1FF12E01C
:10212000D7A2CBA1CB4808F0DBFF0CE0D6A2C8A118
:10213000C84808F0D5FF06E0D6A2C5A1C54808F0FA
:10214000CFFF00E000BF00BF25E0BE4800780128B7
:1021500006D002280AD003280ED0042818D111E096
:10216000CFA2BBA1BB4808F0BBFF12E0CEA2B8A132
:10217000B84808F0B5FF0CE0CDA2B5A1B54808F00D
:10218000AFFF06E0CDA2B2A1B24808F0A9FF00E07F
:1021900000BF00BF00BF00BFAE4808F08BF9C2B25D
:1021A0002046611CCCB2A6490A540819A94908F076
:1021B00088F9A84808F07EF92044C4B2FF222046DE
:1021C000611CCCB29E490A54FC222046611CCCB250
:1021D0009B490A54FF222046611CCCB298490A54FC
:1021E0002046611CCCB296490A54EE222046611C5E
:1021F000CCB293490A54B1222046611CCCB290491A
:102200000A5412222046611CCCB28D490A54002285
:102210002046611CCCB28A490A542046611CCCB2CB
:1022200087490A542046611CCCB285490A54A64805
:102230000078B8B902222046611CCCB280490A5409
:1022400000222046611CCCB27D490A547B4882881A
:102250009EA1A04808F044FF9B480078401C9A4982
:10226000087016E003222046611CCCB274490A545F
:1022700000222046611CCCB271490A546F48428842
:1022800092A1944808F02CFF8F480078401E8E4998
:102290000870904808F00EF9C2B22046611CCCB21A
:1022A00067490A5408198B4908F00BF9894808F066
:1022B00001F92044C4B2FF222046611CCCB260491F
:1022C0000A54FC222046611CCCB25D490A54FF220C
:1022D0002046611CCCB25A490A542046611CCCB23B
:1022E00057490A54EE222046611CCCB254490A5484
:1022F000B1222046611CCCB251490A541222204618
:10230000611CCCB24E490A5400222046611CCCB25A
:102310004B490A542046611CCCB249490A54204614
:10232000611CCCB246490A5409222046611CCCB239
:1023300043490A5400222046611CCCB240490A5449
:102340003E48408800282DDD3E4880780A280BDA78
:102350003A48807800F00100002805DD5EA23CA12B
:10236000604808F0BDFE12E03648807814280EDA86
:10237000344880780A280ADB3048807800F0020070
:10238000002804DD58A232A1564808F0A9FE2D48C5
:102390008078401C142190FBF1F201FB12002949C6
:1023A000887004E053A22AA14E4808F099FE4D48D7
:1023B00008F080F8C2B22146601CC4B220484254E2
:1023C00001460819474908F07CF8464808F072F8B9
:1023D0002044C4B2FF222046611CCCB218490A54E2
:1023E000FC222046611CCCB215490A54FF2220462B
:1023F000611CCCB212490A542046611CCCB210496F
:102400000A54EE222046611CCCB20D490A54B12276
:102410002046611CCCB20A490A5412222046611C93
:10242000CCB207490A5400222046611CCCB20449B0
:102430000A542046611CCCB2014961E0B062002020
:10244000976A00205A00002057454C4C00000000BD
:1024500025730000136F002057454C4C202D2000A1
:1024600057454C4C202D2D200000000057454C4C6A
:10247000202D2D2D2000000045525220000000008C
:1024800045525220202D200045525220202D2D2033
:102490000000000045525220202D2D2D200000006C
:1024A000574152200000000057415220202D2000AB
:1024B00057415220202D2D2000000000574152206E
:1024C000202D2D2D200000005D0000202523580A1E
:1024D00000000000520000204E4F5F4D41494C4229
:1024E0004F580000276F00204D4F544F525F574107
:1024F000520000006F28A1D15FA1D1296F00000018
:102500000A542046611CCCB2FE490A5408222046D7
:10251000611CCCB2FB490A5400222146601CC4B2A3
:10252000F8484254F848808800287DDDF748407814
:102530000A280CDAF448007900F00100002806DDD2
:10254000F3A2AFF2F401F54808F0CAFD67E0EF48E6
:102550004078142810DAED4840780A280CDBEA4865
:10256000007900F00200002806DDEDA2AFF2201194
:10257000EA4808F0B5FD52E0E44840781E2810DA39
:10258000E248407814280CDBDF48007900F00400B2
:10259000002806DDE5A2AFF24811E04808F0A0FDF2
:1025A0003DE0DA484078282810DAD84840781E28DC
:1025B0000CDBD548007900F00800002806DDDEA21B
:1025C000AFF27411D54808F08BFD28E0CF48407871
:1025D000322810DACD48407828280CDBCA48007928
:1025E00000F01000002806DDD6A2AFF29C11CB4807
:1025F00008F076FD13E0C54840783C280FDAC34860
:10260000407832280BDBC048007900F02000002819
:1026100005DDCFA2AFF2C811C04808F061FDBB488C
:102620004078401C3C2100E006E090FBF1F201FB09
:102630001200B649487006E0AFF24812AFF2F0114E
:10264000B64808F04DFDB54807F034FFC2B2204649
:10265000611CCCB2AB490A540819B04907F031FFEC
:10266000AE4807F027FF2044C4B2FF222046611C79
:10267000CCB2A4490A54FC222046611CCCB2A14928
:102680000A54FF222046611CCCB29E490A542046BF
:10269000611CCCB29B490A54EE222046611CCCB28C
:1026A00098490A54B1222046611CCCB295490A547B
:1026B00012222046611CCCB292490A5400222046C4
:1026C000611CCCB28F490A542046611CCCB28D49A2
:1026D0000A542046611CCCB28A490A549F4840786B
:1026E000C0B904222046611CCCB286490A5400229B
:1026F0002046611CCCB283490A548348028AAFF257
:102700003421974808F0ECFC94484078401C9349E9
:10271000487017E005222046611CCCB279490A5462
:1027200000222046611CCCB276490A547648428A7F
:10273000AFF268218A4808F0D3FC88484078401EF0
:1027400086494870864807F0B5FEC2B22046611C33
:10275000CCB26C490A540819814907F0B2FE80488E
:1027600007F0A8FE2044C4B2FF222046611CCCB270
:1027700064490A54FC222046611CCCB261490A54C7
:10278000FF222146601CC4B25E4842542046611CB0
:10279000CCB25C490A54EE222046611CCCB25949A5
:1027A0000A54B1222046611CCCB256490A54122266
:1027B0002146601CC4B25348425400222046611C8A
:1027C000CCB250490A5401222046611CCCB24D497A
:1027D0000A5400222046611CCCB24A490A54012204
:1027E0002046611CCCB247490A5400222046611C95
:1027F000CCB244490A545B4890ED000A10EE101A1E
:10280000084608F01FF841EC180B53EC182B56A1A2
:10281000534808F065FC524807F04CFEC2B220460F
:10282000611CCCB237490A5408194D4907F049FEDA
:102830004B4807F03FFE2044C4B2FF222046611CF3
:10284000CCB230490A54FC222046611CCCB22D493E
:102850000A54FF222046611CCCB22A490A54204661
:10286000611CCCB227490A54EE222046611CCCB22E
:1028700024490A54B1222046611CCCB221490A5491
:1028800012222046611CCCB21E490A540022204666
:10289000611CCCB21B490A5401222046611CCCB2F7
:1028A00018490A5400222046611CCCB215490A542A
:1028B00002222046611CCCB212490A540022204652
:1028C000611CCCB20F490A54264890ED010A10EE63
:1028D000101A084607F0B6FF41EC180B53EC182B02
:1028E00021A11F4808F0FCFB1D4807F0E3FDC2B220
:1028F0002046611CCCB203490A540819184907F054
:10290000E0FD35E0976A0020B06200205A00002008
:1029100051554555455F4655310000001D6F00205B
:1029200051554555455F4655320000004E4F4445D0
:102930005F4C4F53310000004E4F44455F4C4F53A6
:10294000320000004F46465F545241434B000000A6
:102950004D4F544F525F4552520000005D00002021
:1029600052000020D86F002025342E32660000006F
:10297000E74807F09FFD2044C4B2FF222046611CB7
:10298000CCB2E4490A54FC222046611CCCB2E14995
:102990000A54FF222046611CCCB2DE490A5420466C
:1029A000611CCCB2DB490A54EE222046611CCCB239
:1029B000D8490A54B1222046611CCCB2D5490A54E8
:1029C00012222146601CC4B2D24842540022204642
:1029D000611CCCB2CF490A5401222046611CCCB202
:1029E000CC490A5400222046611CCCB2C9490A5481
:1029F00003222046611CCCB2C6490A54002220465C
:102A0000611CCCB2C3490A54C34890ED020A10EECF
:102A1000101A084607F016FF41EC180B53EC182B60
:102A2000AFF2BC01BA4808F05BFBB94807F042FDC1
:102A3000C2B22046611CCCB2B6490A540819B44946
:102A400007F03FFDB24807F035FD2044C4B2FF2235
:102A50002046611CCCB2AF490A54FC222046611CBE
:102A6000CCB2AC490A54FF222046611CCCB2A94921
:102A70000A542046611CCCB2A6490A54EE222046D4
:102A8000611CCCB2A3490A54B1222046611CCCB2CD
:102A9000A0490A5412222046611CCCB29D490A5416
:102AA00000222046611CCCB29A490A5401222046D9
:102AB000611CCCB297490A5400222046611CCCB25A
:102AC00094490A5404222046611CCCB291490A540C
:102AD00000222046611CCCB28E490A548F4890EDEA
:102AE000010A10EE101A084607F0ACFE41EC180B74
:102AF00053EC182BAFF29011854808F0F1FA844896
:102B000007F0D8FCC2B22046611CCCB281490A54FD
:102B100008197F4907F0D5FC7D4807F0CBFC20441D
:102B2000C4B2FF222046611CCCB27A490A54FC226E
:102B30002046611CCCB277490A54FF222046611C12
:102B4000CCB274490A542046611CCCB271490A5473
:102B5000EE222046611CCCB26E490A54B1222046B6
:102B6000611CCCB26B490A5412222046611CCCB2C3
:102B700068490A5400222046611CCCB265490A54B7
:102B800001222046611CCCB262490A540022204630
:102B9000611CCCB25F490A5405222046611CCCB2AC
:102BA0005C490A5400222046611CCCB259490A549F
:102BB0005A4890ED020A10EE101A084607F042FE3D
:102BC00041EC180B53EC182BAFF26421504808F07D
:102BD00087FA4F4807F06EFCC2B22046611CCCB2A7
:102BE0004C490A5408194A4907F06BFC484807F059
:102BF00061FC2044C4B2FF222046611CCCB245498E
:102C00000A54FC222046611CCCB242490A54FF22DD
:102C10002146601CC4B23F4842542046611CCCB2DD
:102C20003C490A54EE222046611CCCB239490A5470
:102C3000B1222046611CCCB236490A5412222046E9
:102C4000611CCCB233490A5400222046611CCCB22C
:102C500030490A5401222046611CCCB22D490A5445
:102C600000222046611CCCB22A490A540622214681
:102C7000601CC4B22748425400222046611CCCB2DA
:102C800024490A54254890ED000A10EE101A08460F
:102C900007F0D8FD41EC180B53EC182BAFF238318C
:102CA0001B4808F01DFA1A4807F004FCC2B221467E
:102CB000601CC4B21748425401460819144907F071
:102CC00000FC134807F0F6FB2044C4B2FF22204664
:102CD000611CCCB20F490A54FC222046611CCCB2C4
:102CE0000C490A54FF222046611CCCB209490A54FF
:102CF0002046611CCCB207490A542146084803F01B
:102D0000D0FA0121064803F0ABFABDEC028B10BDEE
:102D100052000020976A0020D86F00202070002009
:102D2000A060024030B502460B46002023B90421C2
:102D30000024624D2C8203E0082100245F4D6C8248
:102D400000201AE0002400EB800502EB85052C61D1
:102D500000EB800502EB85052C7300EB800502EB90
:102D60008505AC6000EB800502EB85056C6000EB2F
:102D7000800542F82540441CE0B28842E2DB30BDC9
:102D800070B503461446FF20F4BB04224E8801F1BF
:102D9000080505EB06152D68B5F5813F01D100202A
:102DA00000E000BF00BF904233DA00EB800503EB88
:102DB00085052D696D1C00EB800603EB86063561E9
:102DC00000EB800553F825506D1C00EB800643F89E
:102DD000265000EB800503EB85052D7B6D1C00EB79
:102DE000800603EB8606357300EB800503EB850553
:102DF0002D7B0A2D60DD314D2D8A0126864035431D
:102E00002E4E3582354600E004E0AD8845F00405DD
:102E1000B58051E0012C4FD108224E8801F1080500
:102E200005EB06152D68A5F54075052D0ED2DFE8DA
:102E300005F0030507090B00501C08E0002006E020
:102E4000012004E0022002E0032000E000BF00BFF8
:102E5000904231DA00EB800503EB85052D696D1C8E
:102E600000EB800603EB8606356100EB800553F826
:102E700025506D1C00EB800643F8265000EB8005C2
:102E800003EB85052D7B6D1C00EB800603EB8606AE
:102E9000357300EB800503EB85052D7B642D0BDD81
:102EA000064D6D8A012686403543044E75823546AF
:102EB000AD8845F00805B58070BD0000B062002007
:102EC0009FEDFE0A80ED060A9FEDFC0A80ED050AE3
:102ED0009FEDFA0A80ED030A9FEDF80A80ED040ADF
:102EE0009FEDF60A80ED070A91ED000A80ED000AD9
:102EF00091ED010A80ED010A91ED020A80ED020ACE
:102F00007047EF48D0ED020A70EE600AED48C0ED60
:102F1000040AD0ED040AF5EEC00AF1EE10FA02DD63
:102F2000D0ED040A04E0E748D0ED040AF1EE600AAF
:102F30009FEDE51AF4EEC10AF1EE10FA04D2DFEDCE
:102F4000DF0AE048C0ED040ADE48D0ED000A90ED4B
:102F5000041A60EE810A90ED011AD0ED061A41EED6
:102F6000210A90ED041AD0ED031A31EE611AD0ED6A
:102F7000021A41EE810AD548C0ED030AD148D0EDCE
:102F8000040AC0ED030AD148D0ED030A9FEDD01A20
:102F9000F4EEC10AF1EE10FA10DDCA48D0ED040AD1
:102FA000F5EEC00AF1EE10FA2CD2D0ED060A90ED43
:102FB000041A70EE810AC0ED060A23E0C348D0ED82
:102FC000030A9FEDC31AF4EEC10AF1EE10FA10D213
:102FD000BC48D0ED040AF5EEC00AF1EE10FA11DD9E
:102FE000D0ED060A90ED041A70EE810AC0ED060AD3
:102FF00008E0B448D0ED060A90ED041A70EE810A9C
:10300000C0ED060AB148D0ED030AF5EEC00AF1EEB4
:1030100010FA02DDD0ED030A04E0AC48D0ED030A5B
:10302000F1EE600A9FEDAA1AF4EEC10AF1EE10FA71
:1030300015DDA648D0ED030AF5EEC00AF1EE10FA50
:1030400001DB012001E04FF0FF3000EB8010400079
:1030500000EE900AF8EEE00A9C48C0ED030A7047C3
:1030600000B52DED048B85B09A480078012802D177
:1030700001F0A3F805E0974890ED080A934880ED29
:10308000000A9448C078012801D101F077F99148ED
:10309000C079012801D101F055FB01F02AFC8D48CF
:1030A000807B082811D18B4890ED060AD0ED050AE7
:1030B000834890ED001A00EE810AD0ED010A30EE4F
:1030C000600A854880ED040A23E08248007B0128DD
:1030D0000BD1824890ED000A7948D0ED000A30EE1D
:1030E000600A7D4880ED040A13E0754890ED010AFE
:1030F000784890ED051AC0EE010A90ED060A30EE10
:10310000800A6F48D0ED000A30EE600A724880ED08
:10311000040A714890ED040AB5EEC00AF1EE10FA07
:1031200002DD90ED040A04E06B4890ED040AB1EE74
:10313000400AF3EE040AB4EEE00AF1EE10FA17DDED
:10314000654890ED040AD0ED030A30EE600AD0ED38
:10315000000A20EE200AD0ED010A90ED041A00EEDC
:10316000810AD0ED070A30EE200A80ED070A26E03A
:10317000594890ED040AD0ED030A30EE600AD0ED14
:10318000000A20EE200AD0ED010A90ED041A00EEAC
:10319000810AD0ED040A90ED031AF0EE001A41EE18
:1031A000C10A90ED051A70EE810A90ED021A01EE47
:1031B000200AD0ED070A30EE200A80ED070A4648C3
:1031C00090ED070AB5EEC00AF1EE10FA02DD90EDBF
:1031D000070A04E0404890ED070AB1EE400ADFED2F
:1031E0003A0AB4EEE00AF1EE10FA04D29FED330A87
:1031F000394880ED070A384890ED030A80ED050A4A
:1032000090ED040A80ED030A3248807B07280BD139
:103210002E4890ED010A3048D0ED070A30EE200A22
:103220002A4880ED010A0AE0284890ED020A2A485F
:10323000D0ED070A30EE200A244880ED020A234828
:1032400090ED010AD0ED010A20EE200AD0ED020A2D
:1032500090ED021A00EE810A10EE101A084607F0EF
:10326000F1FA41EC190BB0EE490AF0EE690A08F0E8
:1032700047F8B0EE408AF0EE608A51EC180B07F088
:10328000F4FA00EE100A114880ED000A90ED000AF1
:103290001048D0ED160AB4EEE00AF1EE10FA33DD74
:1032A00090ED160A0948D0ED010A20EE200AD0ED73
:1032B000000A80EE201A80ED011A11E000000000E3
:1032C000D86F0020B86F0020CDCCCC3D50700020CE
:1032D0000000024388610020586F0020F06F00203A
:1032E000FE4890ED160AFE48D0ED020A20EE200AB4
:1032F000D0ED000A80EE201A80ED021AF74890ED1A
:10330000160AF74880ED000AF648D0ED020AB0EE42
:10331000600AFFF7F6FDF24890ED000A8DED010A14
:1033200090ED010A8DED020A90ED020A8DED030A7F
:1033300090ED030A8DED040AEB4890ED020AB0EE21
:10334000402ADDED041A9DED031ADDED020A9DED24
:10335000010A00F027FE05B0BDEC048B00BD00B5EE
:103360002DED040B2DED048B85B09DED090ADE4893
:10337000D0ED000A30EE600ADC4880ED040A9DEDD5
:103380000A0AD948D0ED010A30EE600AD84880ED2B
:10339000040A9DED0B0AD448D0ED020A30EE600A13
:1033A000D44880ED040AD14890ED040AB5EEC00A75
:1033B000F1EE10FA02DD90ED040A04E0CB4890ED46
:1033C000040AB1EE400A5FED400AB4EEE00AF1EE05
:1033D00010FA04D21FED470AC44880ED040AC4481D
:1033E00090ED040AB5EEC00AF1EE10FA02DD90EDA0
:1033F000040A04E0BE4890ED040AB1EE400A5FED15
:103400004E0AB4EEE00AF1EE10FA04D21FED550AAE
:10341000B74880ED040AB74890ED040AB5EEC00A3B
:10342000F1EE10FA02DD90ED040A04E0B14890EDEF
:10343000040AB1EE400A5FED5C0AB4EEE00AF1EE78
:1034400010FA04D21FED630AAA4880ED040AA748C7
:1034500090ED040AB5EEC00AF1EE10FA02DD90ED2F
:10346000040A04E0A14890ED040AB1EE400AF1EE2E
:10347000040AB4EEE00AF1EE10FA2BD89E4890ED63
:10348000000A9A4880ED000A9B4890ED010A97488F
:1034900080ED010A984890ED020A944880ED020AF6
:1034A00090ED000AD0ED040A20EE200AD0ED010ACA
:1034B00090ED061A00EE810AD0ED040A90ED031A91
:1034C00070EEC10A90ED021A01EE200A844880EDE8
:1034D000010A6DE0854890ED040AB5EEC00AF1EEF0
:1034E00010FA02DD90ED040A04E0804890ED040A31
:1034F000B1EE400AF3EE040AB4EEE00AF1EE10FA7F
:103500002BD87E4890ED000A784880ED000A7B4871
:1035100090ED010A754880ED010A784890ED020AA5
:10352000724880ED020A90ED000AD0ED040A20EE08
:10353000200AD0ED010A90ED061A00EE810AD0EDC6
:10354000040A90ED031A70EEC10A90ED021A01EE22
:10355000200A634880ED010A2AE0694890ED000ADC
:10356000624880ED000A664890ED010A5F4880EDF0
:10357000010A634890ED020A5C4880ED020A90ED72
:10358000000AD0ED040A20EE200AD0ED010A90EDE9
:10359000061A00EE810AD0ED040A90ED031A70EECF
:1035A000C10A90ED021A01EE200A4D4880ED010A91
:1035B0004F4890ED040AB5EEC00AF1EE10FA02DDB4
:1035C00090ED040A04E04A4890ED040AB1EE400A86
:1035D000F1EE040AB4EEE00AF1EE10FA2BD84948F5
:1035E00090ED000A424880ED000A464890ED010A3D
:1035F0003F4880ED010A434890ED020A3C4880EDC7
:10360000020A90ED000AD0ED040A20EE200AD0ED67
:10361000010A90ED061A00EE810AD0ED040A90ED41
:10362000031A70EEC10A90ED021A01EE200A2C482E
:1036300080ED020A88E02E4890ED040AB5EEC00A3B
:10364000F1EE10FA02DD90ED040A04E0284890ED56
:10365000040AB1EE400AF3EE040AB4EEE00AF1EE19
:1036600010FA2BD8284890ED000A214880ED000A76
:10367000254890ED010A1E4880ED010A224890ED90
:10368000020A1B4880ED020A90ED000AD0ED040A00
:1036900020EE200AD0ED010A90ED061A00EE810A14
:1036A000D0ED040A90ED031A70EEC10A90ED021AF3
:1036B00001EE200A0A4880ED020A45E0134890ED29
:1036C000000A0B4880ED000A104890ED010A0848F6
:1036D00080ED010A0D4890ED020A19E08861002092
:1036E0005070002008700020D86F0020786F0020F4
:1036F000986F0020B86F0020A400002098000020E0
:103700008C000020C8000020BC000020B000002079
:103710009F4880ED020A90ED000AD0ED040A20EEE9
:10372000200AD0ED010A90ED061A00EE810AD0EDD4
:10373000040A90ED031A70EEC10A90ED021A01EE30
:10374000200A944880ED020A934890ED000AD0EDDB
:10375000040A20EE200AD0ED010A90ED061A00EED0
:10376000810AD0ED040A90ED031A70EEC10A90EDC3
:10377000021A01EE200A874880ED030A874890ED7F
:10378000030A80ED050A90ED040A80ED030A90ED2E
:10379000060AD0ED040A30EE200A80ED060A7C48C5
:1037A00090ED030A80ED050A90ED040A80ED030A0E
:1037B00090ED060AD0ED040A30EE200A80ED060AEC
:1037C000754890ED030A80ED050A90ED040A80ED3E
:1037D000030A90ED060AD0ED040A30EE200A80EDCF
:1037E000060A6C4890ED010AD0ED010A20EE200A8D
:1037F000D0ED020A90ED021A00EE810A10EE101AC6
:10380000084607F01FF841EC190BB0EE490AF0EE3C
:10381000690A07F075FDB0EE408AF0EE608A51EC5F
:10382000180B07F022F800EE100A5A4880ED000A43
:1038300090ED000A5A48D0ED160AB4EEE00AF1EE17
:1038400010FA22DD534890ED010A5548D0ED160AD2
:1038500020EE200A4F48D0ED000A80EE201A80EDBD
:10386000011A90ED020A4E48D0ED160A20EE200A09
:103870004848D0ED000A80EE201A80ED021A484830
:1038800090ED160A434880ED000A424890ED030A85
:10389000B5EEC00AF1EE10FA02DD90ED030A04E085
:1038A0003C4890ED030AB1EE400ADFED3E0AB4EE6B
:1038B000E00AF1EE10FA15DD364890ED030AB5EE98
:1038C000C00AF1EE10FA01DB012001E04FF0FF30F9
:1038D00000EB8010400000EE100AB8EEC00A2D4840
:1038E00080ED030A2B4890ED000A8DED010A90ED62
:1038F000010A8DED020A90ED020A8DED030A90EDAA
:10390000030A8DED040A284890ED020AB0EE402A21
:10391000DDED041A9DED031ADDED020A9DED010AAD
:1039200000F040FB05B0BDEC048B0FBD0EB51F4889
:103930008079022826D01A48007C012808D118482E
:10394000407B052802D1FFF78BFB00E000BF1DE0A4
:103950001348407C012819D1154890ED000A8DEDDF
:10396000000A90ED010A8DED010A90ED020A8DED3D
:10397000020A9DED021ADDED010A9DED000AFFF736
:10398000EEFC03E00021084601F025FB0EBD00001F
:10399000986F002050700020B86F0020786F0020D2
:1039A0008861002000000243D86F0020B062002030
:1039B0000870002010B52DED108BB0EE40AAF0EE8F
:1039C00060AAF0EE418AB0EE619AB0EE428AF0EE63
:1039D000629AB0EE43DAF0EE63DAB0EE44EAF0EE6B
:1039E00064EA04460120FD490870084690ED010A8A
:1039F00080ED020AB4EEC98AF1EE10FA03DD01206F
:103A0000F749087002E00020F5490870F448007892
:103A100008B9012000E00020F1494870B4EEE98ABD
:103A2000F1EE10FA02DD0120C87002E00020EC493E
:103A3000C8700120EA490871EA4991ED020A30EEA6
:103A4000680ABDEEC00A10EE100A002801DB01462C
:103A500000E0414200EE101AB8EEC00AF7EE000A8C
:103A6000B4EEE00AF1EE10FA03DD0120DC49C87182
:103A700002E00020DA49C871D948C07908B90120AC
:103A800000E00020D649087208468472012088713F
:103A9000084680ED088A80ED0A9AC0ED099AD2485E
:103AA00090ED000AD14880ED000ACF4890ED010A60
:103AB000CE4880ED010ACB4890ED020ACB4880ED5C
:103AC000020ACB4880ED00AAC0ED01AAC0ED028A2F
:103AD000084680ED11DAC0ED12DAC54890ED000A13
:103AE000C248D0ED000A30EE600AC148D0ED000AAD
:103AF000BE4890ED001A70EEC10A20EE200ABC48C4
:103B0000D0ED010AB94890ED011A70EEC10AB8482B
:103B100090ED011AB548D0ED011A31EE611A00EEB0
:103B2000810A10EE101A084606F08CFE41EC1B0BC1
:103B3000B0EE4B0AF0EE6B0A07F0E2FBB0EE40CAC3
:103B4000F0EE60CA51EC1C0B06F08FFE00EE100A7E
:103B5000A34880ED130A80ED14EAC0ED15EA90ED5C
:103B6000140AD0ED150A30EE200AD0ED130AB4EE97
:103B7000E00AF1EE10FA0FDD90ED130AF0EE080AFC
:103B800080EE201A80ED141A90ED130AF0EE080A68
:103B900080EE201A80ED151A914890ED110AD0EDB3
:103BA000120A30EE200AD0ED130AB4EEE00AF1EE6C
:103BB00010FA0FDD90ED130AF0EE080A80EE201ADD
:103BC00080ED111A90ED130AF0EE080A80EE201A2B
:103BD00080ED121A864991ED000A8449D1ED000A60
:103BE00030EE600ABDEEC00A10EE100A002801DBBC
:103BF000014600E0414200EE101AB8EEC00AF6EEAF
:103C0000000AB4EEE00AF1EE10FA05D20120744980
:103C100008730720887372E00020714908737448A4
:103C200090ED010A7148D0ED010A30EE600A70484B
:103C3000D0ED000A6D4890ED001A70EEC10A80EEDA
:103C4000201A084680ED051AD0ED050A90ED051AF8
:103C5000B7EE000A00EE810A10EE101A084606F0D0
:103C6000F1FD41EC1F0BB0EE4F0AF0EE6F0A07F0CA
:103C700047FBB0EE40CAF0EE60CA53EC1C2B9FED40
:103C80005D0B51EC100B06F03EFD41EC1B0B06F0FA
:103C9000ECFD00EE100A524880ED070A014691ED56
:103CA000050ABDEEC00A10EE100A002801DB01462D
:103CB00000E0414201290FDA0820494988734B4846
:103CC00090ED010AD0ED000A084690ED051A00EECD
:103CD000C10A80ED060A12E0072041498873434873
:103CE000D0ED010A084690ED051A80EE810A3F48A2
:103CF000D0ED000A30EEC00A084680ED060A00202A
:103D000037494874084690ED0A0A3C4880ED000A9D
:103D10009FED3B0A80ED030A344890ED020A3148DA
:103D200080ED020A0520487336493748FFF7C8F886
:103D300036493748FFF7C4F801F0CAF9012028498D
:103D4000087402E0322006F01BF9294890ED000AC1
:103D50002648D0ED000A30EE600A2348D0ED000A74
:103D6000234890ED001A70EEC10A20EE200AD0ED33
:103D7000010A1E4890ED011A70EEC10A1A4890ED32
:103D8000011A1B48D0ED011A31EE611A00EE810ACA
:103D9000F8EE000AB4EEE00AF1EE10FAD2D31048C1
:103DA000807AD8BB124890ED000A0E4880ED000AD8
:103DB0000F4890ED010A0B4880ED010A0C4890ED88
:103DC000020A084880ED020A002005490874012013
:103DD000487410491048FFF773F820E0E8610020AC
:103DE0008861002008700020D86F0020E46F002058
:103DF000F06F0020000000000000F03F5070002035
:103E00000000000068000020586F002080000020A3
:103E1000B86F00208C000020786F00200BE0FE4976
:103E2000FE48FFF74DF8FE49FE48FFF749F800202D
:103E3000FD49087003E00020FC4908744874BDEC9B
:103E4000108B10BD10B5FA488079012823D1F948AC
:103E5000D0ED000AB0EE600A0021012001F043F924
:103E6000F448D0ED050AB0EE600A0021022001F00E
:103E70003AF9F048D0ED0A0AB0EE600A00210320BA
:103E800001F031F9EB48D0ED0F0AB0EE600A0021E5
:103E9000042001F028F910BD10B52DED040B9DEDA7
:103EA000030AE548D0ED020A20EE200ADFEDE30A1E
:103EB00020EE200A9FEDE21AC0EE010A9DED010AF4
:103EC0009FEDE01A20EE010A9DED021ADFEDDE1AE9
:103ED00001EE810A30EE800AD64880ED000A9DEDA1
:103EE000030AD548D0ED020A20EE200ADFEDD30AFE
:103EF00020EE200A9FEDD21AC0EE010A9DED010AC4
:103F00009FEDD01A20EE010A9DED021ADFEDCE1AC8
:103F100001EEC10A30EE800AC64880ED050A9DED2B
:103F2000030AC548D0ED020A20EE200ADFEDC30ADD
:103F300020EE200A9FEDC21AC0EE010A9DED010A93
:103F40009FEDC11A20EE010A9DED021ADFEDBE1AA7
:103F500001EEC10A30EE800AB64880ED0A0A9DEDF6
:103F6000030AB548D0ED020A20EE200ADFEDB30ABD
:103F700020EE200A9FEDB21AC0EE010A9DED010A63
:103F80009FEDB11A20EE010A9DED021ADFEDAE1A87
:103F900001EE810A30EE800AA64880ED0F0AFFF795
:103FA00051FF1FBD10B52DED060B2DED088B84B014
:103FB000B0EE428A002000900190029003909FEDA5
:103FC0009F0A28EE000ADFED9E0A80EE201A11EE0D
:103FD000104A204606F036FC41EC1B0BB0EE4B0AB3
:103FE000F0EE6B0A07F028F9B0EE40AAF0EE60AAF6
:103FF00051EC1A0B06F039FC08EE900A9FED8F0A7F
:1040000028EE000ADFED8E0A80EE201A11EE104A2B
:10401000204606F017FC41EC1B0BB0EE4B0AF0EE0D
:104020006B0A07F0A5F8B0EE40AAF0EE60AA51ECDA
:104030001A0B06F01AFC09EE100A9DED0D0A20EE8F
:10404000090ADDED0E0A00EEA80A8DED010A9DEDCC
:104050000E0A20EE090ADDED0D0A00EEE80A8DEDEC
:10406000020A9DED0F0A8DED030ADDED031A9DEDA9
:10407000021ADDED010A9DED000AFFF70DFF04B005
:10408000BDEC088B06B010BD10B52DED028B84B0D1
:10409000B0EE408AF0EE608A044601206349C871A0
:1040A00000200872694890ED000A694880ED000A16
:1040B000664890ED010A664880ED010A80ED028AAB
:1040C00000204874087401F003F86248C0ED038AC8
:1040D0001FEDB50A80ED010A1FEDB70A80ED020A57
:1040E00022E0322005F04CFF5A4890ED000A8DED99
:1040F000000A90ED010A8DED010A90ED020A8DEDA6
:10410000020A90ED030A8DED030A504890ED020A71
:10411000B0EE402ADDED031A9DED021ADDED010A35
:104120009DED000AFFF73EFF494991ED020A47491C
:10413000D1ED020A30EE600ABDEEC00A10EE100AA0
:10414000002801DB014600E0414200EE101AB8EE03
:10415000C00AF0EE000AB4EEE00AF1EE10FAC0DC9C
:104160001CBB3B4890ED000A3B4880ED000A3848F4
:1041700090ED010A384880ED010A354890ED020AB9
:10418000354880ED020A002028490874012048744F
:1041900032493348FEF794FE1F492048FEF790FE4F
:1041A0001F492048FEF78CFE03E000201F490874D9
:1041B000487404B0BDEC028B10BD10B52DED0E8B14
:1041C000284991ED000A1949D1ED080A30EE600A3C
:1041D000BDEEC00A10EE100A002801DB014600E027
:1041E00041420A297DDD194890ED000A1E48D0EDB4
:1041F000000A30EE600A1548D0ED000A1A4890ED2A
:10420000001A70EEC10A20EE200A1048D0ED010A13
:10421000154890ED011A29E0B0000020986F0020A9
:1042200080000020B86F0020E86100208861002035
:10423000B06200207070002024620020DB0F494033
:1042400000003443F20435BFF204353FD86F00203C
:10425000F06F002050700020087000208C000020BB
:10426000786F002020700020E46F002070EEC10AFB
:10427000FE4890ED011AFE48D0ED011A31EE611AA8
:1042800000EE810A10EE101A084606F0DBFA41EC47
:104290001A0BB0EE4A0AF0EE6A0A07F031F8B0EEF7
:1042A000409AF0EE609A51EC190B06F0DEFA08EE37
:1042B000100AF04890ED110AB4EEC80AF1EE10FAB7
:1042C00042DD90ED110AC8EE000A10EE904A204639
:1042D00006F0B8FA41EC1E0BB0EE4E0AF0EE6E0A94
:1042E00000E03DE007F00CF8B0EE40CAF0EE60CA26
:1042F000E04890ED0A0AD0ED080A30EE600A10EEB0
:10430000101A084606F09EFA41EC1D0B53EC1C2BCC
:1043100006F087F941EC1A0BD64890ED0A0A10EE28
:10432000101A084606F08EFA41EC1B0B53EC1A2BC0
:1043300006F071F941EC190B06F097FA00EE100A3D
:10434000CD4880ED000A16E0CA4890ED080ACA4838
:1043500080ED000A0020C7490870012048700AE07B
:10436000C44890ED080AC44880ED000A0020C14905
:10437000087001204870BDEC0E8B10BD10B52DEDFE
:10438000108BBC4890ED100AF7EE000A30EEC00A20
:10439000D0ED120A20EE200AF0EE408AB74890EDE8
:1043A000000AB248D0ED000A30EE600AB348D0ED02
:1043B000000AAE4890ED001A70EEC10A20EE200A05
:1043C000AE48D0ED010AA94890ED011A70EEC10A7D
:1043D000AA4890ED011AA548D0ED011A31EE611AF4
:1043E00000EE810A10EE101A084606F02BFA41EC96
:1043F0001B0BB0EE4B0AF0EE6B0A06F081FFB0EE3D
:1044000040AAF0EE60AA51EC1A0B06F02EFA08EE64
:10441000100A984890ED120AB4EEC80AF1EE10FAAC
:1044200072DB007901280DD1954890ED010A80EDED
:10443000080A944890ED000A8E4880ED0F0A00208B
:104440008C4908718B48007900285DD189484079F2
:10445000052873D2DFE800F00345597392008548C0
:1044600090ED120AC8EE000A10EE904A204606F0BF
:10447000E9F941EC1D0BB0EE4D0AF0EE6D0A06F0C5
:104480003FFFB0EE40CAF0EE60CA7A4890ED090AEC
:10449000D0ED0F0A30EE600A10EE101A084606F052
:1044A000D1F941EC1E0B53EC1C2B06F0BAF841EC91
:1044B0001B0B704890ED090A10EE101A084606F022
:1044C000C1F941EC1F0B53EC1B2B06F0A4F841EC97
:1044D0001A0B06F0CAF900EE100A674880ED000AD0
:1044E00000E1644890ED120AC8EE000A90ED090A56
:1044F00090ED0F1A30EE411A90ED090A01EE600AB4
:104500005D4880ED000AEDE019E15A48D0ED120A4D
:1045100088EE200AD0ED090A90ED0F1A70EEC10A5C
:1045200060EE200A90ED120A88EE001A90ED090A5A
:1045300000EEC10A504880ED000AD3E081E04D480A
:10454000D0ED120A88EE200AD0ED090A90ED0F1A7C
:1045500070EEC10A20EE200AD0ED120A88EE201A71
:1045600060EE010A90ED120A88EE001A90ED090A39
:1045700000EEC10A404880ED000AB3E03D4890EDEE
:10458000100AD0ED120AB0EE489A00EE609A90ED53
:10459000100AD0ED120A60EE200A80EEA80AD0EDD3
:1045A000100A90ED121A60EE810A80EEA81A60EEF1
:1045B000010A90ED100A90ED121A20EE010A80EE29
:1045C000281AB7EE000A00EE810AD0ED0F0AC0EEFD
:1045D000809A89EE280AD0ED090A70EEE90A20EEE9
:1045E000200AC9EE280A60EE200A89EE281A90ED0A
:1045F000090A00EEC10AD0ED100A90ED121A20EE61
:10460000811AC1EE280A90ED091A31EE691A60EE9E
:10461000810A90ED101AD0ED121A21EE211AC1EE86
:10462000281A60EEA10A90ED101AD0ED121A61EE70
:10463000211A81EEA81A00EEC10A0F4880ED000A87
:1046400050E00C4890ED120AC8EE000A10EE904AB5
:10465000204606F0F7F841EC1E0BB0EE4E0AF0EEE5
:104660006E0A06F04DFEB0EE40CA0DE0D86F002095
:10467000E46F00208861002050700020F06F00205F
:10468000E861002020700020F0EE60CAFB4890ED49
:10469000090AD0ED0F0A30EE600A10EE101A084633
:1046A00006F0D0F841EC1D0B53EC1C2B05F0B9FFC4
:1046B00041EC1A0BF14890ED090A10EE101A084669
:1046C00006F0C0F841EC1B0B53EC1A2B05F0A3FFCE
:1046D00041EC1F0B06F0C9F800EE100AE84880ED27
:1046E000000A00BF00BFE74991ED000ABDEEC00A15
:1046F00010EE100A002801DB014600E04142322999
:104700001DDCDE498979012919D10020DB49487176
:104710008871DC4991ED000ABDEEC00A10EE100A66
:10472000002801DB014600E0414200EE101AB8EE1D
:10473000C00AD24981ED0F0A084680ED128ABDEC0D
:10474000108B10BD10B52DED068BCF4890ED000AF3
:10475000CE48D0ED000A30EE600ACB48D0ED000A1A
:10476000CA4890ED001A70EEC10A20EE200AC64831
:10477000D0ED010AC54890ED011A70EEC10AC24899
:1047800090ED011AC148D0ED011A31EE611A00EE28
:10479000810A10EE101A084606F054F841EC1A0B84
:1047A000B0EE4A0AF0EE6A0A06F0AAFDB0EE409AB0
:1047B000F0EE609A51EC190B06F057F808EE100A6B
:1047C000B3480078012817D1AC4890ED140AB4EE34
:1047D000C80AF1EE10FA0FD2AB4890ED000AAD48CE
:1047E00080ED000AA84890ED010AAA4880ED010A70
:1047F0000020A74908701CE0A04890ED140AD0EDF5
:10480000150A30EE200AB4EEC80AF1EE10FA10D202
:1048100001209F49087000209849C8710120087242
:104820009D4890ED020A9D4880ED020ABDEC068B82
:1048300010BD924890ED140AB4EEC80AF1EE10FAD9
:1048400055D2007AF0BB904890ED000A9148D0ED27
:10485000000A30EE600A8C48D0ED000A8D4890EDD9
:10486000001A70EEC10A20EE200A8748D0ED010A36
:10487000884890ED011A70EEC10A834890ED011A44
:104880008448D0ED011A31EE611A00EE810A10EE73
:10489000101A084605F0D6FF41EC1A0BB0EE4A0A92
:1048A000F0EE6A0A06F02CFDB0EE409AF0EE609A47
:1048B00051EC190B05F0D9FF08EE100A764890ED7F
:1048C000020A00E013E07148D0ED020A30EE600AFF
:1048D00020EE080A6948D0ED150A80EE201A6B48D0
:1048E00090ED020A31EE000A6C4880ED020A00BF2A
:1048F0009CE76248007B01281DD19FED690A604852
:1049000080ED010A644890ED010A6048D0ED010A8B
:10491000B4EEE00AF1EE10FA05DD594890ED000A18
:1049200080ED020A49E0564890ED000AB1EE400AD7
:1049300080ED020A41E0584890ED000A5348D0ED5E
:10494000000AB4EEE00AF1EE10FA19DD4C4890EDE1
:10495000000A4A48D0ED070A20EE200A484880EDB8
:10496000010A90ED000A4548D0ED070A20EE200A22
:10497000D0ED050A20EE200A414880ED020A1CE035
:104980003F4890ED000AB1EE400A3C48D0ED070ADE
:1049900020EE200A3A4880ED010A90ED000AB1EEBF
:1049A000400A3648D0ED070A20EE200AD0ED050A6D
:1049B00020EE200A324880ED020A7047002000BF36
:1049C0007AE000EB8001374A02EB810191ED010AA8
:1049D000B5EEC00AF1EE10FA12DB00EB800102EB3B
:1049E000810191ED020AB5EEC00AF1EE10FA07DB83
:1049F000012100EB80022B4B03EB820211745AE081
:104A000000EB8001274A02EB810191ED010AB5EE2E
:104A1000C00AF1EE10FA12D800EB800102EB81011E
:104A200091ED020AB5EEC00AF1EE10FA07DD02219F
:104A300000EB80021B4B03EB820211743BE000EBA6
:104A40008001184A02EB810191ED010AB5EEC00A1E
:104A5000F1EE10FA28D800EB800102EB810191ED14
:104A6000020AB5EEC00AF1EE10FA1DD2032100EBE6
:104A700080020C4B03EB820211741CE08861002061
:104A80005070002020700020D86F0020E46F0020BC
:104A9000F000002014700020F06F0020087000204B
:104AA0000000000070700020042100EB8002044B25
:104AB00003EB82021174401C042882DB7047000063
:104AC0007070002032209149087000204880888052
:104AD0008F49886132208F49087000204880888083
:104AE0008B49C861704770B586B006460C460025F4
:104AF00087488079022819D1618804F1080000EB09
:104B000001104079422811D1618804F1080000EBBE
:104B100001108079472809D16088401C217890FBDA
:104B2000F1F201FB1200608006B070BD618804F1F3
:104B3000080000EB01100068B0F5806F0AD26188B0
:104B400004F1080000EB01100068019000208DF8CE
:104B50000C0009E0618804F1080000EB0110006816
:104B6000029004208DF80C00618804F1080000EB2D
:104B7000011000798DF80E0000208DF80D009DF8D1
:104B80000E20638804F1080000EB0310411D0DF1B5
:104B90000F0005F06BFC012E3AD104E0681CC5B291
:104BA0000A2D00DD05E001A95B4800F017FF04288D
:104BB000F4D000BF0A2D0EDD5548C069401C544991
:104BC000C8610846C0690A285DDD0846408840F093
:104BD0000100488057E000204D49C86108464088E0
:104BE00020F00100488001224A494C48FEF7C8F8ED
:104BF000618804F1080000EB0110407B30BB608845
:104C0000401C217890FBF1F201FB120060803AE039
:104C1000E6B904E0681CC5B20A2D00DD05E001A973
:104C20003F4800F0DBFE0428F4D000BF0A2D0EDD63
:104C300037488069401C36498861084680690A28DF
:104C400021DD0846408840F0010048801BE000203C
:104C50002F4988610846408820F0010048800022E2
:104C60002A493048FEF78CF8618804F1080000EB0F
:104C70000110407B38B96088401C217890FBF1F22C
:104C800001FB1200608000BF4EE770B52648007837
:104C9000B0BB1F48007D01282ED121E023480068C9
:104CA00023490968085C002815DD20490C68E117D4
:104CB00004EB91718910A4EB8101491CC8B21B4916
:104CC0000D68E91705EB917189101A4B53F82120F3
:104CD0000021904708E015480068401C134908600F
:104CE000124800680C28D9DB00BF104800680C2867
:104CF00002DB00200D49086001200B49087003E029
:104D0000FFE700200849087070BD00000463002020
:104D1000B06200202C66002000680040A4690020DA
:104D20000064004054690020FC000020F4000020D2
:104D30002800002034000020F3498988491CF24AE9
:104D4000127891FBF2F302FB1311EF4A5288914261
:104D500006D1EE49898841F00201EC4A9180704702
:104D60000022E9498B88083101EB03110A60022215
:104D7000E5498B88083101EB03110A710122E249F0
:104D80008B88083101EB03114A710022DE498B88C0
:104D9000083101EB03118A71DB498A88083101EB84
:104DA00002114873D8498988491CD74A127891FB67
:104DB000F2F302FB1311D44A918000BFCFE72DE933
:104DC000F04104460D4616461F46DDF81880CE48D1
:104DD0008088401CCC49097890FBF1F201FB12005D
:104DE000C9494988884207D1C848808840F00200F4
:104DF000C6498880BDE8F08104F54070C2498A88C0
:104E0000083101EB021108600821BF488288083090
:104E100000EB02100171BC488188083000EB0110E2
:104E20004571B9488188083000EB01108671002176
:104E3000B5488288083000EB0210C171B248828800
:104E4000083000EB02100172AF488288083000EB96
:104E5000021000F109014046FCF78EF9AA4881884A
:104E6000083000EB01104773A7488088401CA64912
:104E7000097890FBF1F201FB1200A349888000BF82
:104E8000B8E770B5A04CA488641C9F4D2D7894FBA6
:104E9000F5F605FB16449C4D6D88AC4206D19B4C43
:104EA000A48844F00204994DAC8070BD00F54074B4
:104EB000954DAE88083505EB06152C600425924CFF
:104EC000A688083404EB061425718F4CA588083495
:104ED00004EB051461718C4CA588083404EB0514AF
:104EE000A2710025884CA688083404EB0614E571ED
:104EF000854CA688083404EB06142572824CA588DC
:104F0000083404EB051463737F4CA488641C7E4D45
:104F10002D7894FBF5F605FB16447B4DAC8000BF65
:104F2000C3E733B52DED020B81B005460C4601A851
:104F300023464F224D2100902846FFF740FF05B041
:104F400030BD33B52DED020B81B005460C4601A8EE
:104F500023464D22552100902846FFF730FF05B02B
:104F600030BD33B52DED020B81B005460C4601A8CE
:104F700023465822502100902846FFF720FF05B015
:104F800030BD33B52DED020B81B005460C4601A8AE
:104F900023465022532100902846FFF710FF05B00A
:104FA00030BD33B52DED020B81B005460C4601A88E
:104FB00023464122502100902846FFF700FF05B00C
:104FC00030BD30B505460C462346472242212846CF
:104FD000FFF757FF30BD30B505460C462346542237
:104FE00053212846FFF74DFF30BD30B505460C462E
:104FF0002346582250212846FFF743FF30BD30B5E5
:10500000414B9B885B1C404C247893FBF4F504FBDC
:1050100015333D4C6488A34206D13C4B9B8843F03A
:1050200002033A4CA38030BD394C374B9D8808337E
:1050300003EB05131C600824334B9D88083303EBF6
:1050400005131C715624304B9D88083303EB051360
:105050005C714C242C4B9D88083303EB05139C7129
:10506000294B9C88083303EB0413D971264B9C8889
:10507000083303EB04131A720024234B9D88083372
:1050800003EB05135C72204B9D88083303EB05137B
:105090009C721D4B9D88083303EB0513DC721A4B81
:1050A0009D88083303EB05131C73174B9C8808334A
:1050B00003EB04135873144B9B885B1C124C24782D
:1050C00093FBF4F504FB15330F4CA38000BFAAE754
:1050D00010B5B7EE000A00210846FFF722FF0120B5
:1050E0000A49887110BD33B52DED020B81B005461C
:1050F0000C4601A8234656224A2100902846FFF775
:105100005EFE05B030BD00002C660020B0620020BD
:105110000301030010B5002107E04AF2104200BF6E
:10512000131EA2F10102FBD1491C8142F5D310BD2F
:1051300010B5002106E0282200BF131EA2F10102D3
:10514000FBD1491C8142F6D310BD00BF011EA0F166
:10515000010290B2FAD170471CB50121084601F056
:105160002BFC0E4801F074F901208DF8040000209A
:105170008DF80600F020009000208DF805006946AB
:10518000064801F0D3F940200449088380200883B1
:1051900020200883102008831CBD0000000002406E
:1051A0001CB50121022001F007FC4FF44070009073
:1051B00001208DF8040000208DF8060002208DF8F3
:1051C000050069461A4801F0B1F94FF4807118489A
:1051D00001F028FA4FF40071154801F025FA1CBDC2
:1051E00070B50446112C00DD11241248055D00261F
:1051F0001AE04FF480710E4801F016FA05F0010034
:1052000028B14FF400710A4801F00CFA04E04FF4A1
:105210000071074801F008FA4FF48071044801F06A
:1052200001FA6D10701CC6B2082EE2DB70BD0000E2
:1052300000040240C4C40008704706E04FF4FA704E
:10524000FFF768FF0920FFF7CBFFF7E700BFFEE796
:1052500000BFFEE700BFFEE7704770471CB50121A5
:10526000084601F0A9FB01208DF8040000208DF80C
:1052700006004FF48070009000208DF8050069460C
:10528000034801F053F94FF48070014948831CBD75
:10529000000002401CB5CB48006840F04000C949FE
:1052A00008600846006840F0200008600846006872
:1052B00040F004000860C4480068C349086008461C
:1052C00000680860C0480830006820F47060BE497B
:1052D00008310860081D006820F47060091D08602E
:1052E0000846006840F4A0600860B848006820F0F4
:1052F0000F00B6490860B5480830006820F00F007C
:10530000B24908310860081D006820F00F00091D2F
:1053100008600846006840F00500086001208DF82C
:10532000040000208DF806003020009000208DF849
:1053300005006946A54801F0F9F84FF4C050009007
:105340006946A14801F0F2F800208DF80400012020
:105350008DF80700009069469D4801F0E7F84FF48A
:10536000604000906946984801F0E0F801208DF80F
:10537000040000208DF806000220009000208DF827
:1053800005006946934801F0D1F800208DF804002B
:1053900002208DF807000120009000208DF8050004
:1053A00069468C4801F0C2F802218A4801F03AF9B6
:1053B0000120009000208DF805006946854801F025
:1053C000B5F80221834801F02DF900208DF8040082
:1053D00001208DF807004002009000208DF80500A4
:1053E00069467A4801F0A2F84FF40071774801F05D
:1053F00019F91CBD2DE9FC41FF25FF24FF260120E2
:105400008DF8040000208DF8060030200090002068
:105410008DF8050069466D4801F088F84FF4C050DA
:1054200000906946684801F081F800208DF804007A
:1054300001208DF8070000906946654801F076F874
:105440004FF46040009069465F4801F06FF8002219
:1054500030215E4801F0EAF800224FF4C0515A486A
:1054600001F0E4F80120FFF763FE4FF400515648C5
:1054700001F0BEF807464FF48041534801F0B8F8F8
:1054800047EA40074FF400414F4801F0B1F847EABE
:10549000800701214E4801F0ABF847EAC000044004
:1054A0000F2C77D00A20FFF735FE4FF40051464805
:1054B00001F09EF807464FF48041434801F098F808
:1054C00047EA40074FF400413F4801F091F847EAAE
:1054D000800701213E4801F08BF847EAC0000440F4
:1054E0000F2C57D001208DF8040000208DF8060005
:1054F000012000906946364801F018F84FF46040EA
:1055000000906946304801F011F800208DF8040041
:1055100001208DF807003020009000208DF8050054
:1055200069462A4801F002F84FF4C05000906946DD
:10553000254800F0FBFF00220121254801F076F804
:1055400000224FF46041204801F070F80220FFF77C
:10555000E1FD10211D4801F04BF8C70020211B4838
:1055600001F046F847EA80074FF40061164801F061
:105570003FF847EA40074FF48051134801F038F8EC
:105580003843054044EA0510C043C6B23046BDE882
:10559000FC81FFE7F043C0B2F9E710B510210A48DB
:1055A00001F026F804462021074801F021F844EADA
:1055B00040040121054801F01BF844EA8000C0B214
:1055C00010BD0000303802400014024000080240C4
:1055D000001802400004024032490143324A11607F
:1055E000704770B5002100230F22C4781CB32E4CE5
:1055F000246804F4E064C4F5E064C4F30721C1F155
:105600000404E3B20A4144789C40E1B28478144037
:1056100021430C07210E254C05786155047804F0D0
:105620001F050124AC4005786D11AD0005F1E025A2
:10563000C5F8004109E0047804F01F050124AC40DE
:105640001B4D0678761145F8264070BD194A0A4070
:105650000243154B1B1F1A60704739B1124A121DC5
:1056600012680243104B1B1D1A6006E00E4A121D01
:10567000126882430C4B1B1D1A607047042808D126
:105680004FF0E021096941F004014FF0E02211617F
:1056900007E04FF0E021096921F004014FF0E0221A
:1056A000116170470000FA050CED00E000E400E035
:1056B00080E100E080FFFF1F10B50446FE488442F1
:1056C00009D10121480601F012FA00214FF00070C3
:1056D00001F00DFA08E00121880601F008FA002126
:1056E0004FF0806001F003FA10BD30B50246002093
:1056F0000023146824F002041460146844F00104C8
:10570000146000E05B1C546804F001041CB94FF6FF
:10571000FF74A342F6D1546804F001040CB90020D0
:105720006CE08C79012C04D1146844F0800414607E
:1057300003E0146824F080041460CC79012C04D1B7
:10574000146844F04004146003E0146824F040043A
:1057500014600C7A012C04D1146844F02004146005
:1057600003E0146824F0200414604C7A012C04D166
:10577000146844F01004146003E0146824F010046A
:1057800014608C7A012C04D1146844F0080414606D
:1057900003E0146824F008041460CC7A012C04D1CE
:1057A000146844F00404146003E0146824F0040452
:1057B00014608C78A407CD7844EA05640D7944EA36
:1057C00005444D7944EA05540D886D1E2C43D4617F
:1057D000146824F001041460002300E05B1C54688A
:1057E00004F001041CB14FF6FF74A342F6D15468D3
:1057F00004F001040CB1002000E0012030BD10B520
:105800000021837A012202FA03F1AC4A126842F0C5
:105810000102AA4B1A60A94A1C3212688A43A74B9C
:105820001C331A60027BCAB9A44A0C3212688A433C
:10583000A24B0C331A604288C38842EA03439F4A52
:105840004032847A42F834300288838842EA034343
:105850009A4A4032847A02EBC4025360027B012AE6
:1058600019D1964A0C3212680A43944B0C331A60D1
:105870004288038842EA0343904A4032847A42F8DD
:105880003430C288838842EA03438C4A4032847AA7
:1058900002EBC4025360C27A3AB9884A121D1268F8
:1058A0008A43864B1B1D1A6006E0844A121D12684B
:1058B0000A43824B1B1D1A60028932B97F4A143297
:1058C00012688A437D4B14331A600289012A06D17B
:1058D0007A4A143212680A43784B14331A60427BB6
:1058E000012A06D1754A1C3212680A43734B1C33D5
:1058F0001A60724A126822F00102704B1A6010BDE1
:1059000000218171C171017241728172C172817015
:10591000C170032101710221417101210180704791
:105920006649096841F00101644A1160114609683D
:1059300043F60E729143614A11601146096841EACB
:10594000002111601146096821F0010111607047C2
:1059500021B1026842F48032026003E0026822F45E
:10596000803202607047E1B1026842F0800202605A
:105970004FF4C272125842F480734FF4C272135043
:105980004FF4CA72125842F480734FF4CA72135023
:105990004FF4D272125842F480734FF4D272135003
:1059A0001BE0026822F0800202604FF4C2721258BB
:1059B00022F480734FF4C27213504FF4CA7212581B
:1059C00022F480734FF4CA7213504FF4D2721258FB
:1059D00022F480734FF4D2721350704710B5024610
:1059E0000020936803F08063B3F1806F00D110E072
:1059F000936803F00063B3F1006F01D1012008E068
:105A0000936803F08053B3F1805F01D1022000E07E
:105A10000420042879D002F5C07303EB00131B683F
:105A200003F0010402F5C07303EB00131C600B7A52
:105A30007BB94B7A0C8843EA445302F5C07404EBFB
:105A400000142468234302F5C07404EB001423609F
:105A500010E00B7A4C6843EAC4034C7A234302F506
:105A6000C07404EB00142468234302F5C07404EBF3
:105A7000001423608B7A03F00F038B7202F5C0735E
:105A800003EB00135B6823F00F0402F5C07303EB14
:105A900000135C6002F5C07303EB00135B688C7A43
:105AA000234302F5C07404EB001463608B7B1C0677
:105AB0004B7B44EA034403E000640040006600407E
:105AC0000B7B44EA0323CC7A234302F5C07404EB36
:105AD0000014A3608B7C1C064B7C44EA03440B7CC3
